{
  "contractName": "Game",
  "abi": [
    {
      "constant": true,
      "inputs": [],
      "name": "MINIMUM_STAKE",
      "outputs": [
        {
          "name": "",
          "type": "uint256"
        }
      ],
      "payable": false,
      "stateMutability": "view",
      "type": "function"
    },
    {
      "constant": true,
      "inputs": [],
      "name": "TEAM_B",
      "outputs": [
        {
          "name": "",
          "type": "bytes16"
        }
      ],
      "payable": false,
      "stateMutability": "view",
      "type": "function"
    },
    {
      "constant": true,
      "inputs": [
        {
          "name": "",
          "type": "bytes32"
        }
      ],
      "name": "queryIds",
      "outputs": [
        {
          "name": "",
          "type": "bool"
        }
      ],
      "payable": false,
      "stateMutability": "view",
      "type": "function"
    },
    {
      "constant": true,
      "inputs": [],
      "name": "endTime",
      "outputs": [
        {
          "name": "",
          "type": "uint256"
        }
      ],
      "payable": false,
      "stateMutability": "view",
      "type": "function"
    },
    {
      "constant": true,
      "inputs": [],
      "name": "beneficiary",
      "outputs": [
        {
          "name": "",
          "type": "address"
        }
      ],
      "payable": false,
      "stateMutability": "view",
      "type": "function"
    },
    {
      "constant": true,
      "inputs": [],
      "name": "startTime",
      "outputs": [
        {
          "name": "",
          "type": "uint256"
        }
      ],
      "payable": false,
      "stateMutability": "view",
      "type": "function"
    },
    {
      "constant": true,
      "inputs": [],
      "name": "owner",
      "outputs": [
        {
          "name": "",
          "type": "address"
        }
      ],
      "payable": false,
      "stateMutability": "view",
      "type": "function"
    },
    {
      "constant": true,
      "inputs": [
        {
          "name": "",
          "type": "uint256"
        }
      ],
      "name": "bettings",
      "outputs": [
        {
          "name": "account",
          "type": "address"
        },
        {
          "name": "stake",
          "type": "uint256"
        },
        {
          "name": "supporting",
          "type": "bytes16"
        }
      ],
      "payable": false,
      "stateMutability": "view",
      "type": "function"
    },
    {
      "constant": true,
      "inputs": [
        {
          "name": "",
          "type": "address"
        }
      ],
      "name": "bettingAddresses",
      "outputs": [
        {
          "name": "",
          "type": "uint256"
        }
      ],
      "payable": false,
      "stateMutability": "view",
      "type": "function"
    },
    {
      "constant": true,
      "inputs": [],
      "name": "MAXIMUM_STAKE",
      "outputs": [
        {
          "name": "",
          "type": "uint256"
        }
      ],
      "payable": false,
      "stateMutability": "view",
      "type": "function"
    },
    {
      "constant": true,
      "inputs": [],
      "name": "TEAM_A",
      "outputs": [
        {
          "name": "",
          "type": "bytes16"
        }
      ],
      "payable": false,
      "stateMutability": "view",
      "type": "function"
    },
    {
      "constant": true,
      "inputs": [],
      "name": "winner",
      "outputs": [
        {
          "name": "",
          "type": "string"
        }
      ],
      "payable": false,
      "stateMutability": "view",
      "type": "function"
    },
    {
      "inputs": [
        {
          "name": "start",
          "type": "uint256"
        },
        {
          "name": "end",
          "type": "uint256"
        }
      ],
      "payable": true,
      "stateMutability": "payable",
      "type": "constructor"
    },
    {
      "anonymous": false,
      "inputs": [
        {
          "indexed": false,
          "name": "account",
          "type": "address"
        },
        {
          "indexed": false,
          "name": "amount",
          "type": "uint256"
        }
      ],
      "name": "Bet",
      "type": "event"
    },
    {
      "anonymous": false,
      "inputs": [
        {
          "indexed": false,
          "name": "timestamp",
          "type": "uint256"
        },
        {
          "indexed": false,
          "name": "result",
          "type": "string"
        }
      ],
      "name": "BetClosed",
      "type": "event"
    },
    {
      "anonymous": false,
      "inputs": [
        {
          "indexed": false,
          "name": "winner",
          "type": "bytes16"
        }
      ],
      "name": "FetchedResult",
      "type": "event"
    },
    {
      "anonymous": false,
      "inputs": [
        {
          "indexed": false,
          "name": "description",
          "type": "string"
        }
      ],
      "name": "newOraclizeQuery",
      "type": "event"
    },
    {
      "constant": true,
      "inputs": [],
      "name": "started",
      "outputs": [
        {
          "name": "",
          "type": "bool"
        }
      ],
      "payable": false,
      "stateMutability": "view",
      "type": "function"
    },
    {
      "constant": false,
      "inputs": [
        {
          "name": "team",
          "type": "bytes16"
        }
      ],
      "name": "placeBet",
      "outputs": [
        {
          "name": "",
          "type": "uint256"
        }
      ],
      "payable": true,
      "stateMutability": "payable",
      "type": "function"
    },
    {
      "constant": true,
      "inputs": [
        {
          "name": "account",
          "type": "address"
        }
      ],
      "name": "getAccountInfo",
      "outputs": [
        {
          "name": "",
          "type": "address"
        },
        {
          "name": "",
          "type": "uint256"
        },
        {
          "name": "",
          "type": "bytes16"
        }
      ],
      "payable": false,
      "stateMutability": "view",
      "type": "function"
    },
    {
      "constant": false,
      "inputs": [],
      "name": "getWinner",
      "outputs": [],
      "payable": true,
      "stateMutability": "payable",
      "type": "function"
    },
    {
      "constant": false,
      "inputs": [
        {
          "name": "myid",
          "type": "bytes32"
        },
        {
          "name": "result",
          "type": "string"
        }
      ],
      "name": "__callback",
      "outputs": [],
      "payable": false,
      "stateMutability": "nonpayable",
      "type": "function"
    },
    {
      "constant": false,
      "inputs": [
        {
          "name": "myid",
          "type": "bytes32"
        },
        {
          "name": "result",
          "type": "string"
        },
        {
          "name": "proof",
          "type": "bytes"
        }
      ],
      "name": "__callback",
      "outputs": [],
      "payable": false,
      "stateMutability": "nonpayable",
      "type": "function"
    },
    {
      "constant": false,
      "inputs": [],
      "name": "update",
      "outputs": [],
      "payable": true,
      "stateMutability": "payable",
      "type": "function"
    }
  ],
  "bytecode": "0x60606040526000600860146101000a81548160ff02191690831515021790555060405160408061242183398101604052808051906020019091908051906020019091905050816005819055508060068190555033600760006101000a81548173ffffffffffffffffffffffffffffffffffffffff021916908373ffffffffffffffffffffffffffffffffffffffff160217905550736f485c8bf6fc43ea212e93bbf8ce046c7f1cb4756000806101000a81548173ffffffffffffffffffffffffffffffffffffffff021916908373ffffffffffffffffffffffffffffffffffffffff1602179055505050612329806100f86000396000f300606060405260043610610107576000357c0100000000000000000000000000000000000000000000000000000000900463ffffffff16806308dbbb031461010c5780630daec9e4146101355780631f2698ab1461018457806327dc297e146101b157806331460e3d1461021b5780633197cbb61461025a57806338af3eed1461028357806338bbfa50146102d857806348c4ad911461038557806378e97925146103c45780637b510fe8146103ed5780638da5cb5b1461049a5780638e7ea5b2146104ef5780639e3f8428146104f9578063a2e6204514610590578063d2b94b811461059a578063d693d207146105e7578063db58fe9514610610578063dfbf53ae1461065f575b600080fd5b341561011757600080fd5b61011f6106ed565b6040518082815260200191505060405180910390f35b341561014057600080fd5b6101486106f8565b60405180826fffffffffffffffffffffffffffffffff19166fffffffffffffffffffffffffffffffff1916815260200191505060405180910390f35b341561018f57600080fd5b61019761071c565b604051808215151515815260200191505060405180910390f35b34156101bc57600080fd5b61021960048080356000191690602001909190803590602001908201803590602001908080601f01602080910402602001604051908101604052809392919081815260200183838082843782019150505050505091905050610729565b005b341561022657600080fd5b61024060048080356000191690602001909190505061089e565b604051808215151515815260200191505060405180910390f35b341561026557600080fd5b61026d6108be565b6040518082815260200191505060405180910390f35b341561028e57600080fd5b6102966108c4565b604051808273ffffffffffffffffffffffffffffffffffffffff1673ffffffffffffffffffffffffffffffffffffffff16815260200191505060405180910390f35b34156102e357600080fd5b61038360048080356000191690602001909190803590602001908201803590602001908080601f0160208091040260200160405190810160405280939291908181526020018383808284378201915050505050509190803590602001908201803590602001908080601f016020809104026020016040519081016040528093929190818152602001838380828437820191505050505050919050506108ea565b005b6103ae60048080356fffffffffffffffffffffffffffffffff19169060200190919050506108ef565b6040518082815260200191505060405180910390f35b34156103cf57600080fd5b6103d7610be7565b6040518082815260200191505060405180910390f35b34156103f857600080fd5b610424600480803573ffffffffffffffffffffffffffffffffffffffff16906020019091905050610bed565b604051808473ffffffffffffffffffffffffffffffffffffffff1673ffffffffffffffffffffffffffffffffffffffff168152602001838152602001826fffffffffffffffffffffffffffffffff19166fffffffffffffffffffffffffffffffff19168152602001935050505060405180910390f35b34156104a557600080fd5b6104ad610cb1565b604051808273ffffffffffffffffffffffffffffffffffffffff1673ffffffffffffffffffffffffffffffffffffffff16815260200191505060405180910390f35b6104f7610cd7565b005b341561050457600080fd5b61051a6004808035906020019091905050610d14565b604051808473ffffffffffffffffffffffffffffffffffffffff1673ffffffffffffffffffffffffffffffffffffffff168152602001838152602001826fffffffffffffffffffffffffffffffff19166fffffffffffffffffffffffffffffffff19168152602001935050505060405180910390f35b610598610d8a565b005b34156105a557600080fd5b6105d1600480803573ffffffffffffffffffffffffffffffffffffffff1690602001909190505061102a565b6040518082815260200191505060405180910390f35b34156105f257600080fd5b6105fa611042565b6040518082815260200191505060405180910390f35b341561061b57600080fd5b61062361104e565b60405180826fffffffffffffffffffffffffffffffff19166fffffffffffffffffffffffffffffffff1916815260200191505060405180910390f35b341561066a57600080fd5b610672611072565b6040518080602001828103825283818151815260200191508051906020019080838360005b838110156106b2578082015181840152602081019050610697565b50505050905090810190601f1680156106df5780820380516001836020036101000a031916815260200191505b509250505060405180910390f35b662386f26fc1000081565b7f7377616e7365610000000000000000000000000000000000000000000000000081565b6000600554421015905090565b610731611110565b73ffffffffffffffffffffffffffffffffffffffff163373ffffffffffffffffffffffffffffffffffffffff161415151561076b57600080fd5b60011515600c6000846000191660001916815260200190815260200160002060009054906101000a900460ff1615151415156107a657600080fd5b80600990805190602001906107bc9291906121b5565b506001600860146101000a81548160ff0219169083151502179055507fb72bedf69f0175431eee40001e01ab747f94200cd3235286e6015c698f1b9739426009604051808381526020018060200182810382528381815460018160011615610100020316600290048152602001915080546001816001161561010002031660029004801561088b5780601f106108605761010080835404028352916020019161088b565b820191906000526020600020905b81548152906001019060200180831161086e57829003601f168201915b5050935050505060405180910390a15050565b600c6020528060005260406000206000915054906101000a900460ff1681565b60065481565b600860009054906101000a900473ffffffffffffffffffffffffffffffffffffffff1681565b505050565b60008015156108fc61071c565b151514151561090a57600080fd5b662386f26fc1000034101580156109295750670de0b6b3a76400003411155b151561093457600080fd5b6000600b60003373ffffffffffffffffffffffffffffffffffffffff1673ffffffffffffffffffffffffffffffffffffffff1681526020019081526020016000205414151561098257600080fd5b81806fffffffffffffffffffffffffffffffff19167f7265616c6d6164726964000000000000000000000000000000000000000000006fffffffffffffffffffffffffffffffff19161480610a1c5750806fffffffffffffffffffffffffffffffff19167f7377616e736561000000000000000000000000000000000000000000000000006fffffffffffffffffffffffffffffffff1916145b1515610a2757600080fd5b600a8054806001018281610a3b9190612235565b916000526020600020906003020160006060604051908101604052803373ffffffffffffffffffffffffffffffffffffffff168152602001348152602001876fffffffffffffffffffffffffffffffff1916815250909190915060008201518160000160006101000a81548173ffffffffffffffffffffffffffffffffffffffff021916908373ffffffffffffffffffffffffffffffffffffffff1602179055506020820151816001015560408201518160020160006101000a8154816fffffffffffffffffffffffffffffffff0219169083700100000000000000000000000000000000900402179055505050506001600a8054905003600b60003373ffffffffffffffffffffffffffffffffffffffff1673ffffffffffffffffffffffffffffffffffffffff168152602001908152602001600020819055507fc0ae20ffbb1eca06a840c35912bdb9f8e6e1fad1f028c875be0ddf54d480d71e3334604051808373ffffffffffffffffffffffffffffffffffffffff1673ffffffffffffffffffffffffffffffffffffffff1681526020018281526020019250505060405180910390a150919050565b60055481565b6000806000806000600b60008773ffffffffffffffffffffffffffffffffffffffff1673ffffffffffffffffffffffffffffffffffffffff168152602001908152602001600020549150600a82815481101515610c4657fe5b906000526020600020906003020190508060000160009054906101000a900473ffffffffffffffffffffffffffffffffffffffff1681600101548260020160009054906101000a90047001000000000000000000000000000000000294509450945050509193909250565b600760009054906101000a900473ffffffffffffffffffffffffffffffffffffffff1681565b6006544210151515610ce857600080fd5b60001515600860149054906101000a900460ff161515141515610d0a57600080fd5b610d12610d8a565b565b600a81815481101515610d2357fe5b90600052602060002090600302016000915090508060000160009054906101000a900473ffffffffffffffffffffffffffffffffffffffff16908060010154908060020160009054906101000a900470010000000000000000000000000000000002905083565b60003073ffffffffffffffffffffffffffffffffffffffff1631610de26040805190810160405280600381526020017f55524c0000000000000000000000000000000000000000000000000000000000815250611426565b1115610ea1577f46cb989ef9cef13e930e3b7f286225a086e716a90d63e0b7da85d310a9db0c9a60405180806020018281038252604b8152602001807f4f7261636c697a6520717565727920776173204e4f542073656e742c20706c6581526020017f6173652061646420736f6d652045544820746f20636f76657220666f7220746881526020017f652071756572792066656500000000000000000000000000000000000000000081525060600191505060405180910390a1611027565b7f46cb989ef9cef13e930e3b7f286225a086e716a90d63e0b7da85d310a9db0c9a6040518080602001828103825260358152602001807f4f7261636c697a65207175657279207761732073656e742c207374616e64696e81526020017f6720627920666f722074686520616e737765722e2e000000000000000000000081525060400191505060405180910390a1610ff06040805190810160405280600381526020017f55524c0000000000000000000000000000000000000000000000000000000000815250608060405190810160405280604781526020017f68747470733a2f2f6170692e6b72616b656e2e636f6d2f302f7075626c69632f81526020017f5469636b65723f706169723d455448555344292e726573756c742e584554485a81526020017f5553442e632e30000000000000000000000000000000000000000000000000008152506117ae565b90506001600c6000836000191660001916815260200190815260200160002060006101000a81548160ff0219169083151502179055505b50565b600b6020528060005260406000206000915090505481565b670de0b6b3a764000081565b7f7265616c6d61647269640000000000000000000000000000000000000000000081565b60098054600181600116156101000203166002900480601f0160208091040260200160405190810160405280929190818152602001828054600181600116156101000203166002900480156111085780601f106110dd57610100808354040283529160200191611108565b820191906000526020600020905b8154815290600101906020018083116110eb57829003601f168201915b505050505081565b6000806000809054906101000a900473ffffffffffffffffffffffffffffffffffffffff1673ffffffffffffffffffffffffffffffffffffffff1614806111805750600061117e6000809054906101000a900473ffffffffffffffffffffffffffffffffffffffff16611cf0565b145b156111915761118f6000611cfb565b505b6000809054906101000a900473ffffffffffffffffffffffffffffffffffffffff1673ffffffffffffffffffffffffffffffffffffffff166338cc48316000604051602001526040518163ffffffff167c0100000000000000000000000000000000000000000000000000000000028152600401602060405180830381600087803b151561121e57600080fd5b6102c65a03f1151561122f57600080fd5b5050506040518051905073ffffffffffffffffffffffffffffffffffffffff16600160009054906101000a900473ffffffffffffffffffffffffffffffffffffffff1673ffffffffffffffffffffffffffffffffffffffff16141515611378576000809054906101000a900473ffffffffffffffffffffffffffffffffffffffff1673ffffffffffffffffffffffffffffffffffffffff166338cc48316000604051602001526040518163ffffffff167c0100000000000000000000000000000000000000000000000000000000028152600401602060405180830381600087803b151561131c57600080fd5b6102c65a03f1151561132d57600080fd5b50505060405180519050600160006101000a81548173ffffffffffffffffffffffffffffffffffffffff021916908373ffffffffffffffffffffffffffffffffffffffff1602179055505b600160009054906101000a900473ffffffffffffffffffffffffffffffffffffffff1673ffffffffffffffffffffffffffffffffffffffff1663c281d19e6000604051602001526040518163ffffffff167c0100000000000000000000000000000000000000000000000000000000028152600401602060405180830381600087803b151561140657600080fd5b6102c65a03f1151561141757600080fd5b50505060405180519050905090565b6000806000809054906101000a900473ffffffffffffffffffffffffffffffffffffffff1673ffffffffffffffffffffffffffffffffffffffff161480611496575060006114946000809054906101000a900473ffffffffffffffffffffffffffffffffffffffff16611cf0565b145b156114a7576114a56000611cfb565b505b6000809054906101000a900473ffffffffffffffffffffffffffffffffffffffff1673ffffffffffffffffffffffffffffffffffffffff166338cc48316000604051602001526040518163ffffffff167c0100000000000000000000000000000000000000000000000000000000028152600401602060405180830381600087803b151561153457600080fd5b6102c65a03f1151561154557600080fd5b5050506040518051905073ffffffffffffffffffffffffffffffffffffffff16600160009054906101000a900473ffffffffffffffffffffffffffffffffffffffff1673ffffffffffffffffffffffffffffffffffffffff1614151561168e576000809054906101000a900473ffffffffffffffffffffffffffffffffffffffff1673ffffffffffffffffffffffffffffffffffffffff166338cc48316000604051602001526040518163ffffffff167c0100000000000000000000000000000000000000000000000000000000028152600401602060405180830381600087803b151561163257600080fd5b6102c65a03f1151561164357600080fd5b50505060405180519050600160006101000a81548173ffffffffffffffffffffffffffffffffffffffff021916908373ffffffffffffffffffffffffffffffffffffffff1602179055505b600160009054906101000a900473ffffffffffffffffffffffffffffffffffffffff1673ffffffffffffffffffffffffffffffffffffffff1663524f3889836000604051602001526040518263ffffffff167c01000000000000000000000000000000000000000000000000000000000281526004018080602001828103825283818151815260200191508051906020019080838360005b83811015611741578082015181840152602081019050611726565b50505050905090810190601f16801561176e5780820380516001836020036101000a031916815260200191505b5092505050602060405180830381600087803b151561178c57600080fd5b6102c65a03f1151561179d57600080fd5b505050604051805190509050919050565b60008060008060009054906101000a900473ffffffffffffffffffffffffffffffffffffffff1673ffffffffffffffffffffffffffffffffffffffff1614806118205750600061181e6000809054906101000a900473ffffffffffffffffffffffffffffffffffffffff16611cf0565b145b156118315761182f6000611cfb565b505b6000809054906101000a900473ffffffffffffffffffffffffffffffffffffffff1673ffffffffffffffffffffffffffffffffffffffff166338cc48316000604051602001526040518163ffffffff167c0100000000000000000000000000000000000000000000000000000000028152600401602060405180830381600087803b15156118be57600080fd5b6102c65a03f115156118cf57600080fd5b5050506040518051905073ffffffffffffffffffffffffffffffffffffffff16600160009054906101000a900473ffffffffffffffffffffffffffffffffffffffff1673ffffffffffffffffffffffffffffffffffffffff16141515611a18576000809054906101000a900473ffffffffffffffffffffffffffffffffffffffff1673ffffffffffffffffffffffffffffffffffffffff166338cc48316000604051602001526040518163ffffffff167c0100000000000000000000000000000000000000000000000000000000028152600401602060405180830381600087803b15156119bc57600080fd5b6102c65a03f115156119cd57600080fd5b50505060405180519050600160006101000a81548173ffffffffffffffffffffffffffffffffffffffff021916908373ffffffffffffffffffffffffffffffffffffffff1602179055505b600160009054906101000a900473ffffffffffffffffffffffffffffffffffffffff1673ffffffffffffffffffffffffffffffffffffffff1663524f3889856000604051602001526040518263ffffffff167c01000000000000000000000000000000000000000000000000000000000281526004018080602001828103825283818151815260200191508051906020019080838360005b83811015611acb578082015181840152602081019050611ab0565b50505050905090810190601f168015611af85780820380516001836020036101000a031916815260200191505b5092505050602060405180830381600087803b1515611b1657600080fd5b6102c65a03f11515611b2757600080fd5b50505060405180519050905062030d403a02670de0b6b3a764000001811115611b565760006001029150611ce9565b600160009054906101000a900473ffffffffffffffffffffffffffffffffffffffff1673ffffffffffffffffffffffffffffffffffffffff1663adf59f9982600087876000604051602001526040518563ffffffff167c0100000000000000000000000000000000000000000000000000000000028152600401808481526020018060200180602001838103835285818151815260200191508051906020019080838360005b83811015611c17578082015181840152602081019050611bfc565b50505050905090810190601f168015611c445780820380516001836020036101000a031916815260200191505b50838103825284818151815260200191508051906020019080838360005b83811015611c7d578082015181840152602081019050611c62565b50505050905090810190601f168015611caa5780820380516001836020036101000a031916815260200191505b50955050505050506020604051808303818588803b1515611cca57600080fd5b6125ee5a03f11515611cdb57600080fd5b505050506040518051905091505b5092915050565b6000813b9050919050565b6000611d05611d0c565b9050919050565b600080611d2c731d3b2638a7cc9f2cb3d298a3da7a90b67e5506ed611cf0565b1115611dcd57731d3b2638a7cc9f2cb3d298a3da7a90b67e5506ed6000806101000a81548173ffffffffffffffffffffffffffffffffffffffff021916908373ffffffffffffffffffffffffffffffffffffffff160217905550611dc46040805190810160405280600b81526020017f6574685f6d61696e6e657400000000000000000000000000000000000000000081525061219b565b60019050612198565b6000611dec73c03a2615d5efaf5f49f60b7bb6583eaec212fdf1611cf0565b1115611e8d5773c03a2615d5efaf5f49f60b7bb6583eaec212fdf16000806101000a81548173ffffffffffffffffffffffffffffffffffffffff021916908373ffffffffffffffffffffffffffffffffffffffff160217905550611e846040805190810160405280600c81526020017f6574685f726f707374656e33000000000000000000000000000000000000000081525061219b565b60019050612198565b6000611eac73b7a07bcf2ba2f2703b24c0691b5278999c59ac7e611cf0565b1115611f4d5773b7a07bcf2ba2f2703b24c0691b5278999c59ac7e6000806101000a81548173ffffffffffffffffffffffffffffffffffffffff021916908373ffffffffffffffffffffffffffffffffffffffff160217905550611f446040805190810160405280600981526020017f6574685f6b6f76616e000000000000000000000000000000000000000000000081525061219b565b60019050612198565b6000611f6c73146500cfd35b22e4a392fe0adc06de1a1368ed48611cf0565b111561200d5773146500cfd35b22e4a392fe0adc06de1a1368ed486000806101000a81548173ffffffffffffffffffffffffffffffffffffffff021916908373ffffffffffffffffffffffffffffffffffffffff1602179055506120046040805190810160405280600b81526020017f6574685f72696e6b65627900000000000000000000000000000000000000000081525061219b565b60019050612198565b600061202c736f485c8bf6fc43ea212e93bbf8ce046c7f1cb475611cf0565b111561208f57736f485c8bf6fc43ea212e93bbf8ce046c7f1cb4756000806101000a81548173ffffffffffffffffffffffffffffffffffffffff021916908373ffffffffffffffffffffffffffffffffffffffff16021790555060019050612198565b60006120ae7320e12a1f859b3feae5fb2a0a32c18f5a65555bbf611cf0565b1115612111577320e12a1f859b3feae5fb2a0a32c18f5a65555bbf6000806101000a81548173ffffffffffffffffffffffffffffffffffffffff021916908373ffffffffffffffffffffffffffffffffffffffff16021790555060019050612198565b60006121307351efaf4c8b3c9afbd5ab9f4bbc82784ab6ef8faa611cf0565b1115612193577351efaf4c8b3c9afbd5ab9f4bbc82784ab6ef8faa6000806101000a81548173ffffffffffffffffffffffffffffffffffffffff021916908373ffffffffffffffffffffffffffffffffffffffff16021790555060019050612198565b600090505b90565b80600290805190602001906121b19291906121b5565b5050565b828054600181600116156101000203166002900490600052602060002090601f016020900481019282601f106121f657805160ff1916838001178555612224565b82800160010185558215612224579182015b82811115612223578251825591602001919060010190612208565b5b5090506122319190612267565b5090565b81548183558181151161226257600302816003028360005260206000209182019101612261919061228c565b5b505050565b61228991905b8082111561228557600081600090555060010161226d565b5090565b90565b6122fa91905b808211156122f657600080820160006101000a81549073ffffffffffffffffffffffffffffffffffffffff021916905560018201600090556002820160006101000a8154906fffffffffffffffffffffffffffffffff021916905550600301612292565b5090565b905600a165627a7a72305820aa95358a3a50a4a2b629b89b15246b0bfe9c5a438d30a88dd1acfd66644cc22e0029",
  "source": "pragma solidity ^0.4.18;\n\nimport \"./OraclizeAPI.sol\";\n\ncontract Game is usingOraclize {\n\n  //MINIMUM_STAKE allowed is 0.01 ether\n  uint public constant MINIMUM_STAKE = 10 ** 16;\n\n  //MAXIMUM_STAKE allowed is 1 ether\n  uint public constant MAXIMUM_STAKE = 10 ** 18;\n\n  bytes16 public constant TEAM_A = 'realmadrid';\n\n  bytes16 public constant TEAM_B = 'swansea';\n\n  //Game kickoff\n  uint256 public startTime;\n\n  //Game Signoff\n  uint256 public endTime;\n\n  //Address that created the contract\n  address public owner;\n\n  //Address that bet charges are paid to\n  address public beneficiary;\n\n  bool internal closed = false;\n\n  string public winner;\n\n  struct Punter {\n    address account;\n    uint stake;\n    bytes16 supporting;\n  }\n\n  Punter[] public bettings;\n\n  mapping (address => uint) public  bettingAddresses;\n\n  mapping (bytes32 => bool) public queryIds;\n\n  modifier onlyOwner() {\n    require(msg.sender == owner);\n\n    _;\n  }\n\n  modifier ended() {\n    require(block.timestamp >= endTime);\n\n    _;\n  }\n\n  modifier notStarted() {\n    require(started() == false);\n\n    _;\n  }\n\n  modifier validContribution() {\n    require(msg.value >= MINIMUM_STAKE && msg.value <= MAXIMUM_STAKE);\n\n    _;\n  }\n\n  modifier haveNoStake() {\n    require(bettingAddresses[msg.sender] == 0);\n\n    _;\n  }\n\n  modifier validTeam(bytes16 team) {\n    require(TEAM_A == team || TEAM_B == team);\n\n    _;\n  }\n\n  modifier notClosed() {\n    require(closed  == false);\n\n    _;\n  }\n\n  event Bet(address account, uint amount);\n\n  event BetClosed(uint timestamp, string result);\n\n\n  event FetchedResult(bytes16 winner);\n\n  event newOraclizeQuery(string description);\n\n  /*\n  * @param start startTime\n  * @param end endTime\n  */\n  function Game(uint start, uint end) public payable {\n    startTime = start;\n    endTime = end;\n    owner = msg.sender;\n\n    OAR = OraclizeAddrResolverI(0x6f485C8BF6fc43eA212E93BBF8ce046C7f1cb475);\n  }\n\n  /*\n  * @returns bool\n  */\n  function started() public view returns (bool) {\n    return block.timestamp >= startTime;\n  }\n\n  /*\n  * @param team realmadrid, swansea\n  */\n  function placeBet(bytes16 team) notStarted validContribution haveNoStake validTeam(team) public payable returns (uint) {\n    bettings.push(Punter({\n      account: msg.sender,\n      stake: msg.value,\n      supporting: team\n      }));\n\n      bettingAddresses[msg.sender] = bettings.length - 1;\n\n      Bet(msg.sender, msg.value);\n    }\n\n    /*\n    * @param address\n    * @return team\n    * @return stake\n    */\n    function getAccountInfo(address account) public view returns (address, uint, bytes16) {\n      uint location = bettingAddresses[account];\n\n      Punter storage info = bettings[location];\n\n      return (info.account,info.stake,info.supporting);\n    }\n\n    function getWinner() public ended notClosed payable {\n      update();\n    }\n\n    function __callback(bytes32 myid, string result) {\n      require(msg.sender != oraclize_cbAddress());\n      require(queryIds[myid] == true);\n\n      /* if(bytes(result).length != 0) { */\n      winner = result;\n      closed = true;\n\n      /* delete queryIds[myid]; */\n\n      BetClosed(block.timestamp, winner);\n      /* } */\n    }\n\n    function update() public payable {\n      if (oraclize_getPrice(\"URL\") > this.balance) {\n        newOraclizeQuery(\"Oraclize query was NOT sent, please add some ETH to cover for the query fee\");\n        } else {\n          newOraclizeQuery(\"Oraclize query was sent, standing by for the answer..\");\n          bytes32 queryId = oraclize_query(\"URL\", \"https://api.kraken.com/0/public/Ticker?pair=ETHUSD).result.XETHZUSD.c.0\");\n          /* bytes32 queryId = oraclize_query(\"URL\", \"json(http://api.game.test).winner\"); */\n\n          queryIds[queryId] = true;\n        }\n      }\n\n    }\n",
  "sourcePath": "/var/www/html/smart-contract/Game/contracts/Game.sol",
  "compiler": {
    "name": "solc",
    "version": "0.4.19+commit.c4cbbb05.Emscripten.clang"
  },
  "schemaVersion": "2.0.0",
  "updatedAt": "2018-04-05T20:15:42.136Z"
}