{
  "contractName": "Game",
  "abi": [
    {
      "constant": true,
      "inputs": [],
      "name": "MINIMUM_STAKE",
      "outputs": [
        {
          "name": "",
          "type": "uint256"
        }
      ],
      "payable": false,
      "stateMutability": "view",
      "type": "function"
    },
    {
      "constant": true,
      "inputs": [],
      "name": "TEAM_B",
      "outputs": [
        {
          "name": "",
          "type": "bytes16"
        }
      ],
      "payable": false,
      "stateMutability": "view",
      "type": "function"
    },
    {
      "constant": true,
      "inputs": [],
      "name": "endTime",
      "outputs": [
        {
          "name": "",
          "type": "uint256"
        }
      ],
      "payable": false,
      "stateMutability": "view",
      "type": "function"
    },
    {
      "constant": true,
      "inputs": [],
      "name": "beneficiary",
      "outputs": [
        {
          "name": "",
          "type": "address"
        }
      ],
      "payable": false,
      "stateMutability": "view",
      "type": "function"
    },
    {
      "constant": true,
      "inputs": [],
      "name": "didfetch",
      "outputs": [
        {
          "name": "",
          "type": "string"
        }
      ],
      "payable": false,
      "stateMutability": "view",
      "type": "function"
    },
    {
      "constant": true,
      "inputs": [],
      "name": "startTime",
      "outputs": [
        {
          "name": "",
          "type": "uint256"
        }
      ],
      "payable": false,
      "stateMutability": "view",
      "type": "function"
    },
    {
      "constant": true,
      "inputs": [],
      "name": "owner",
      "outputs": [
        {
          "name": "",
          "type": "address"
        }
      ],
      "payable": false,
      "stateMutability": "view",
      "type": "function"
    },
    {
      "constant": true,
      "inputs": [
        {
          "name": "",
          "type": "uint256"
        }
      ],
      "name": "bettings",
      "outputs": [
        {
          "name": "account",
          "type": "address"
        },
        {
          "name": "stake",
          "type": "uint256"
        },
        {
          "name": "supporting",
          "type": "bytes16"
        }
      ],
      "payable": false,
      "stateMutability": "view",
      "type": "function"
    },
    {
      "constant": true,
      "inputs": [
        {
          "name": "",
          "type": "address"
        }
      ],
      "name": "bettingAddresses",
      "outputs": [
        {
          "name": "",
          "type": "uint256"
        }
      ],
      "payable": false,
      "stateMutability": "view",
      "type": "function"
    },
    {
      "constant": true,
      "inputs": [],
      "name": "MAXIMUM_STAKE",
      "outputs": [
        {
          "name": "",
          "type": "uint256"
        }
      ],
      "payable": false,
      "stateMutability": "view",
      "type": "function"
    },
    {
      "constant": true,
      "inputs": [],
      "name": "TEAM_A",
      "outputs": [
        {
          "name": "",
          "type": "bytes16"
        }
      ],
      "payable": false,
      "stateMutability": "view",
      "type": "function"
    },
    {
      "constant": true,
      "inputs": [],
      "name": "winner",
      "outputs": [
        {
          "name": "",
          "type": "string"
        }
      ],
      "payable": false,
      "stateMutability": "view",
      "type": "function"
    },
    {
      "inputs": [
        {
          "name": "start",
          "type": "uint256"
        },
        {
          "name": "end",
          "type": "uint256"
        }
      ],
      "payable": true,
      "stateMutability": "payable",
      "type": "constructor"
    },
    {
      "anonymous": false,
      "inputs": [
        {
          "indexed": false,
          "name": "account",
          "type": "address"
        },
        {
          "indexed": false,
          "name": "amount",
          "type": "uint256"
        }
      ],
      "name": "Bet",
      "type": "event"
    },
    {
      "anonymous": false,
      "inputs": [
        {
          "indexed": false,
          "name": "timestamp",
          "type": "uint256"
        }
      ],
      "name": "BetClosed",
      "type": "event"
    },
    {
      "anonymous": false,
      "inputs": [],
      "name": "FetchResult",
      "type": "event"
    },
    {
      "anonymous": false,
      "inputs": [
        {
          "indexed": false,
          "name": "winner",
          "type": "bytes16"
        }
      ],
      "name": "FetchedResult",
      "type": "event"
    },
    {
      "anonymous": false,
      "inputs": [
        {
          "indexed": false,
          "name": "description",
          "type": "string"
        }
      ],
      "name": "newOraclizeQuery",
      "type": "event"
    },
    {
      "constant": true,
      "inputs": [],
      "name": "started",
      "outputs": [
        {
          "name": "",
          "type": "bool"
        }
      ],
      "payable": false,
      "stateMutability": "view",
      "type": "function"
    },
    {
      "constant": false,
      "inputs": [
        {
          "name": "team",
          "type": "bytes16"
        }
      ],
      "name": "placeBet",
      "outputs": [
        {
          "name": "",
          "type": "uint256"
        }
      ],
      "payable": true,
      "stateMutability": "payable",
      "type": "function"
    },
    {
      "constant": true,
      "inputs": [
        {
          "name": "account",
          "type": "address"
        }
      ],
      "name": "getAccountInfo",
      "outputs": [
        {
          "name": "",
          "type": "address"
        },
        {
          "name": "",
          "type": "uint256"
        },
        {
          "name": "",
          "type": "bytes16"
        }
      ],
      "payable": false,
      "stateMutability": "view",
      "type": "function"
    },
    {
      "constant": false,
      "inputs": [],
      "name": "getWinner",
      "outputs": [],
      "payable": true,
      "stateMutability": "payable",
      "type": "function"
    },
    {
      "constant": false,
      "inputs": [
        {
          "name": "myid",
          "type": "bytes32"
        },
        {
          "name": "result",
          "type": "string"
        }
      ],
      "name": "__callback",
      "outputs": [],
      "payable": false,
      "stateMutability": "nonpayable",
      "type": "function"
    },
    {
      "constant": false,
      "inputs": [
        {
          "name": "myid",
          "type": "bytes32"
        },
        {
          "name": "result",
          "type": "string"
        },
        {
          "name": "proof",
          "type": "bytes"
        }
      ],
      "name": "__callback",
      "outputs": [],
      "payable": false,
      "stateMutability": "nonpayable",
      "type": "function"
    },
    {
      "constant": false,
      "inputs": [],
      "name": "update",
      "outputs": [],
      "payable": true,
      "stateMutability": "payable",
      "type": "function"
    }
  ],
  "bytecode": "0x60606040526000600860146101000a81548160ff0219169083151502179055506040516040806124b483398101604052808051906020019091908051906020019091905050816005819055508060068190555033600760006101000a81548173ffffffffffffffffffffffffffffffffffffffff021916908373ffffffffffffffffffffffffffffffffffffffff160217905550736f485c8bf6fc43ea212e93bbf8ce046c7f1cb4756000806101000a81548173ffffffffffffffffffffffffffffffffffffffff021916908373ffffffffffffffffffffffffffffffffffffffff16021790555050506123bc806100f86000396000f300606060405260043610610107576000357c0100000000000000000000000000000000000000000000000000000000900463ffffffff16806308dbbb031461010c5780630daec9e4146101355780631f2698ab1461018457806327dc297e146101b15780633197cbb61461021b57806338af3eed1461024457806338bbfa501461029957806348c4ad911461034657806375b659231461038557806378e97925146104135780637b510fe81461043c5780638da5cb5b146104e95780638e7ea5b21461053e5780639e3f842814610548578063a2e62045146105df578063d2b94b81146105e9578063d693d20714610636578063db58fe951461065f578063dfbf53ae146106ae575b600080fd5b341561011757600080fd5b61011f61073c565b6040518082815260200191505060405180910390f35b341561014057600080fd5b610148610747565b60405180826fffffffffffffffffffffffffffffffff19166fffffffffffffffffffffffffffffffff1916815260200191505060405180910390f35b341561018f57600080fd5b61019761076b565b604051808215151515815260200191505060405180910390f35b34156101bc57600080fd5b61021960048080356000191690602001909190803590602001908201803590602001908080601f01602080910402602001604051908101604052809392919081815260200183838082843782019150505050505091905050610778565b005b341561022657600080fd5b61022e6108d9565b6040518082815260200191505060405180910390f35b341561024f57600080fd5b6102576108df565b604051808273ffffffffffffffffffffffffffffffffffffffff1673ffffffffffffffffffffffffffffffffffffffff16815260200191505060405180910390f35b34156102a457600080fd5b61034460048080356000191690602001909190803590602001908201803590602001908080601f0160208091040260200160405190810160405280939291908181526020018383808284378201915050505050509190803590602001908201803590602001908080601f01602080910402602001604051908101604052809392919081815260200183838082843782019150505050505091905050610905565b005b61036f60048080356fffffffffffffffffffffffffffffffff191690602001909190505061090a565b6040518082815260200191505060405180910390f35b341561039057600080fd5b610398610c02565b6040518080602001828103825283818151815260200191508051906020019080838360005b838110156103d85780820151818401526020810190506103bd565b50505050905090810190601f1680156104055780820380516001836020036101000a031916815260200191505b509250505060405180910390f35b341561041e57600080fd5b610426610ca0565b6040518082815260200191505060405180910390f35b341561044757600080fd5b610473600480803573ffffffffffffffffffffffffffffffffffffffff16906020019091905050610ca6565b604051808473ffffffffffffffffffffffffffffffffffffffff1673ffffffffffffffffffffffffffffffffffffffff168152602001838152602001826fffffffffffffffffffffffffffffffff19166fffffffffffffffffffffffffffffffff19168152602001935050505060405180910390f35b34156104f457600080fd5b6104fc610d6a565b604051808273ffffffffffffffffffffffffffffffffffffffff1673ffffffffffffffffffffffffffffffffffffffff16815260200191505060405180910390f35b610546610d90565b005b341561055357600080fd5b6105696004808035906020019091905050610dcd565b604051808473ffffffffffffffffffffffffffffffffffffffff1673ffffffffffffffffffffffffffffffffffffffff168152602001838152602001826fffffffffffffffffffffffffffffffff19166fffffffffffffffffffffffffffffffff19168152602001935050505060405180910390f35b6105e7610e43565b005b34156105f457600080fd5b610620600480803573ffffffffffffffffffffffffffffffffffffffff169060200190919050506110bd565b6040518082815260200191505060405180910390f35b341561064157600080fd5b6106496110d5565b6040518082815260200191505060405180910390f35b341561066a57600080fd5b6106726110e1565b60405180826fffffffffffffffffffffffffffffffff19166fffffffffffffffffffffffffffffffff1916815260200191505060405180910390f35b34156106b957600080fd5b6106c1611105565b6040518080602001828103825283818151815260200191508051906020019080838360005b838110156107015780820151818401526020810190506106e6565b50505050905090810190601f16801561072e5780820380516001836020036101000a031916815260200191505b509250505060405180910390f35b662386f26fc1000081565b7f7377616e7365610000000000000000000000000000000000000000000000000081565b6000600554421015905090565b6107806111a3565b73ffffffffffffffffffffffffffffffffffffffff163373ffffffffffffffffffffffffffffffffffffffff16141515156107ba57600080fd5b60011515600d6000846000191660001916815260200190815260200160002060009054906101000a900460ff1615151415156107f557600080fd5b806009908051906020019061080b929190612248565b506001600860146101000a81548160ff0219169083151502179055506040805190810160405280600381526020017f7965730000000000000000000000000000000000000000000000000000000000815250600a9080519060200190610872929190612248565b50600d6000836000191660001916815260200190815260200160002060006101000a81549060ff02191690557f0eece8d5a08d055ab5110a6ecddd40f483417a5ba1e85d80db5ec862ac8209d0426040518082815260200191505060405180910390a15050565b60065481565b600860009054906101000a900473ffffffffffffffffffffffffffffffffffffffff1681565b505050565b600080151561091761076b565b151514151561092557600080fd5b662386f26fc1000034101580156109445750670de0b6b3a76400003411155b151561094f57600080fd5b6000600c60003373ffffffffffffffffffffffffffffffffffffffff1673ffffffffffffffffffffffffffffffffffffffff1681526020019081526020016000205414151561099d57600080fd5b81806fffffffffffffffffffffffffffffffff19167f7265616c6d6164726964000000000000000000000000000000000000000000006fffffffffffffffffffffffffffffffff19161480610a375750806fffffffffffffffffffffffffffffffff19167f7377616e736561000000000000000000000000000000000000000000000000006fffffffffffffffffffffffffffffffff1916145b1515610a4257600080fd5b600b8054806001018281610a5691906122c8565b916000526020600020906003020160006060604051908101604052803373ffffffffffffffffffffffffffffffffffffffff168152602001348152602001876fffffffffffffffffffffffffffffffff1916815250909190915060008201518160000160006101000a81548173ffffffffffffffffffffffffffffffffffffffff021916908373ffffffffffffffffffffffffffffffffffffffff1602179055506020820151816001015560408201518160020160006101000a8154816fffffffffffffffffffffffffffffffff0219169083700100000000000000000000000000000000900402179055505050506001600b8054905003600c60003373ffffffffffffffffffffffffffffffffffffffff1673ffffffffffffffffffffffffffffffffffffffff168152602001908152602001600020819055507fc0ae20ffbb1eca06a840c35912bdb9f8e6e1fad1f028c875be0ddf54d480d71e3334604051808373ffffffffffffffffffffffffffffffffffffffff1673ffffffffffffffffffffffffffffffffffffffff1681526020018281526020019250505060405180910390a150919050565b600a8054600181600116156101000203166002900480601f016020809104026020016040519081016040528092919081815260200182805460018160011615610100020316600290048015610c985780601f10610c6d57610100808354040283529160200191610c98565b820191906000526020600020905b815481529060010190602001808311610c7b57829003601f168201915b505050505081565b60055481565b6000806000806000600c60008773ffffffffffffffffffffffffffffffffffffffff1673ffffffffffffffffffffffffffffffffffffffff168152602001908152602001600020549150600b82815481101515610cff57fe5b906000526020600020906003020190508060000160009054906101000a900473ffffffffffffffffffffffffffffffffffffffff1681600101548260020160009054906101000a90047001000000000000000000000000000000000294509450945050509193909250565b600760009054906101000a900473ffffffffffffffffffffffffffffffffffffffff1681565b6006544210151515610da157600080fd5b60001515600860149054906101000a900460ff161515141515610dc357600080fd5b610dcb610e43565b565b600b81815481101515610ddc57fe5b90600052602060002090600302016000915090508060000160009054906101000a900473ffffffffffffffffffffffffffffffffffffffff16908060010154908060020160009054906101000a900470010000000000000000000000000000000002905083565b60003073ffffffffffffffffffffffffffffffffffffffff1631610e9b6040805190810160405280600381526020017f55524c00000000000000000000000000000000000000000000000000000000008152506114b9565b1115610f5a577f46cb989ef9cef13e930e3b7f286225a086e716a90d63e0b7da85d310a9db0c9a60405180806020018281038252604b8152602001807f4f7261636c697a6520717565727920776173204e4f542073656e742c20706c6581526020017f6173652061646420736f6d652045544820746f20636f76657220666f7220746881526020017f652071756572792066656500000000000000000000000000000000000000000081525060600191505060405180910390a16110ba565b7f46cb989ef9cef13e930e3b7f286225a086e716a90d63e0b7da85d310a9db0c9a6040518080602001828103825260358152602001807f4f7261636c697a65207175657279207761732073656e742c207374616e64696e81526020017f6720627920666f722074686520616e737765722e2e000000000000000000000081525060400191505060405180910390a16110836040805190810160405280600381526020017f55524c0000000000000000000000000000000000000000000000000000000000815250606060405190810160405280602181526020017f6a736f6e28687474703a2f2f6170692e67616d652e74657374292e77696e6e6581526020017f7200000000000000000000000000000000000000000000000000000000000000815250611841565b90506001600d6000836000191660001916815260200190815260200160002060006101000a81548160ff0219169083151502179055505b50565b600c6020528060005260406000206000915090505481565b670de0b6b3a764000081565b7f7265616c6d61647269640000000000000000000000000000000000000000000081565b60098054600181600116156101000203166002900480601f01602080910402602001604051908101604052809291908181526020018280546001816001161561010002031660029004801561119b5780601f106111705761010080835404028352916020019161119b565b820191906000526020600020905b81548152906001019060200180831161117e57829003601f168201915b505050505081565b6000806000809054906101000a900473ffffffffffffffffffffffffffffffffffffffff1673ffffffffffffffffffffffffffffffffffffffff161480611213575060006112116000809054906101000a900473ffffffffffffffffffffffffffffffffffffffff16611d83565b145b15611224576112226000611d8e565b505b6000809054906101000a900473ffffffffffffffffffffffffffffffffffffffff1673ffffffffffffffffffffffffffffffffffffffff166338cc48316000604051602001526040518163ffffffff167c0100000000000000000000000000000000000000000000000000000000028152600401602060405180830381600087803b15156112b157600080fd5b6102c65a03f115156112c257600080fd5b5050506040518051905073ffffffffffffffffffffffffffffffffffffffff16600160009054906101000a900473ffffffffffffffffffffffffffffffffffffffff1673ffffffffffffffffffffffffffffffffffffffff1614151561140b576000809054906101000a900473ffffffffffffffffffffffffffffffffffffffff1673ffffffffffffffffffffffffffffffffffffffff166338cc48316000604051602001526040518163ffffffff167c0100000000000000000000000000000000000000000000000000000000028152600401602060405180830381600087803b15156113af57600080fd5b6102c65a03f115156113c057600080fd5b50505060405180519050600160006101000a81548173ffffffffffffffffffffffffffffffffffffffff021916908373ffffffffffffffffffffffffffffffffffffffff1602179055505b600160009054906101000a900473ffffffffffffffffffffffffffffffffffffffff1673ffffffffffffffffffffffffffffffffffffffff1663c281d19e6000604051602001526040518163ffffffff167c0100000000000000000000000000000000000000000000000000000000028152600401602060405180830381600087803b151561149957600080fd5b6102c65a03f115156114aa57600080fd5b50505060405180519050905090565b6000806000809054906101000a900473ffffffffffffffffffffffffffffffffffffffff1673ffffffffffffffffffffffffffffffffffffffff161480611529575060006115276000809054906101000a900473ffffffffffffffffffffffffffffffffffffffff16611d83565b145b1561153a576115386000611d8e565b505b6000809054906101000a900473ffffffffffffffffffffffffffffffffffffffff1673ffffffffffffffffffffffffffffffffffffffff166338cc48316000604051602001526040518163ffffffff167c0100000000000000000000000000000000000000000000000000000000028152600401602060405180830381600087803b15156115c757600080fd5b6102c65a03f115156115d857600080fd5b5050506040518051905073ffffffffffffffffffffffffffffffffffffffff16600160009054906101000a900473ffffffffffffffffffffffffffffffffffffffff1673ffffffffffffffffffffffffffffffffffffffff16141515611721576000809054906101000a900473ffffffffffffffffffffffffffffffffffffffff1673ffffffffffffffffffffffffffffffffffffffff166338cc48316000604051602001526040518163ffffffff167c0100000000000000000000000000000000000000000000000000000000028152600401602060405180830381600087803b15156116c557600080fd5b6102c65a03f115156116d657600080fd5b50505060405180519050600160006101000a81548173ffffffffffffffffffffffffffffffffffffffff021916908373ffffffffffffffffffffffffffffffffffffffff1602179055505b600160009054906101000a900473ffffffffffffffffffffffffffffffffffffffff1673ffffffffffffffffffffffffffffffffffffffff1663524f3889836000604051602001526040518263ffffffff167c01000000000000000000000000000000000000000000000000000000000281526004018080602001828103825283818151815260200191508051906020019080838360005b838110156117d45780820151818401526020810190506117b9565b50505050905090810190601f1680156118015780820380516001836020036101000a031916815260200191505b5092505050602060405180830381600087803b151561181f57600080fd5b6102c65a03f1151561183057600080fd5b505050604051805190509050919050565b60008060008060009054906101000a900473ffffffffffffffffffffffffffffffffffffffff1673ffffffffffffffffffffffffffffffffffffffff1614806118b3575060006118b16000809054906101000a900473ffffffffffffffffffffffffffffffffffffffff16611d83565b145b156118c4576118c26000611d8e565b505b6000809054906101000a900473ffffffffffffffffffffffffffffffffffffffff1673ffffffffffffffffffffffffffffffffffffffff166338cc48316000604051602001526040518163ffffffff167c0100000000000000000000000000000000000000000000000000000000028152600401602060405180830381600087803b151561195157600080fd5b6102c65a03f1151561196257600080fd5b5050506040518051905073ffffffffffffffffffffffffffffffffffffffff16600160009054906101000a900473ffffffffffffffffffffffffffffffffffffffff1673ffffffffffffffffffffffffffffffffffffffff16141515611aab576000809054906101000a900473ffffffffffffffffffffffffffffffffffffffff1673ffffffffffffffffffffffffffffffffffffffff166338cc48316000604051602001526040518163ffffffff167c0100000000000000000000000000000000000000000000000000000000028152600401602060405180830381600087803b1515611a4f57600080fd5b6102c65a03f11515611a6057600080fd5b50505060405180519050600160006101000a81548173ffffffffffffffffffffffffffffffffffffffff021916908373ffffffffffffffffffffffffffffffffffffffff1602179055505b600160009054906101000a900473ffffffffffffffffffffffffffffffffffffffff1673ffffffffffffffffffffffffffffffffffffffff1663524f3889856000604051602001526040518263ffffffff167c01000000000000000000000000000000000000000000000000000000000281526004018080602001828103825283818151815260200191508051906020019080838360005b83811015611b5e578082015181840152602081019050611b43565b50505050905090810190601f168015611b8b5780820380516001836020036101000a031916815260200191505b5092505050602060405180830381600087803b1515611ba957600080fd5b6102c65a03f11515611bba57600080fd5b50505060405180519050905062030d403a02670de0b6b3a764000001811115611be95760006001029150611d7c565b600160009054906101000a900473ffffffffffffffffffffffffffffffffffffffff1673ffffffffffffffffffffffffffffffffffffffff1663adf59f9982600087876000604051602001526040518563ffffffff167c0100000000000000000000000000000000000000000000000000000000028152600401808481526020018060200180602001838103835285818151815260200191508051906020019080838360005b83811015611caa578082015181840152602081019050611c8f565b50505050905090810190601f168015611cd75780820380516001836020036101000a031916815260200191505b50838103825284818151815260200191508051906020019080838360005b83811015611d10578082015181840152602081019050611cf5565b50505050905090810190601f168015611d3d5780820380516001836020036101000a031916815260200191505b50955050505050506020604051808303818588803b1515611d5d57600080fd5b6125ee5a03f11515611d6e57600080fd5b505050506040518051905091505b5092915050565b6000813b9050919050565b6000611d98611d9f565b9050919050565b600080611dbf731d3b2638a7cc9f2cb3d298a3da7a90b67e5506ed611d83565b1115611e6057731d3b2638a7cc9f2cb3d298a3da7a90b67e5506ed6000806101000a81548173ffffffffffffffffffffffffffffffffffffffff021916908373ffffffffffffffffffffffffffffffffffffffff160217905550611e576040805190810160405280600b81526020017f6574685f6d61696e6e657400000000000000000000000000000000000000000081525061222e565b6001905061222b565b6000611e7f73c03a2615d5efaf5f49f60b7bb6583eaec212fdf1611d83565b1115611f205773c03a2615d5efaf5f49f60b7bb6583eaec212fdf16000806101000a81548173ffffffffffffffffffffffffffffffffffffffff021916908373ffffffffffffffffffffffffffffffffffffffff160217905550611f176040805190810160405280600c81526020017f6574685f726f707374656e33000000000000000000000000000000000000000081525061222e565b6001905061222b565b6000611f3f73b7a07bcf2ba2f2703b24c0691b5278999c59ac7e611d83565b1115611fe05773b7a07bcf2ba2f2703b24c0691b5278999c59ac7e6000806101000a81548173ffffffffffffffffffffffffffffffffffffffff021916908373ffffffffffffffffffffffffffffffffffffffff160217905550611fd76040805190810160405280600981526020017f6574685f6b6f76616e000000000000000000000000000000000000000000000081525061222e565b6001905061222b565b6000611fff73146500cfd35b22e4a392fe0adc06de1a1368ed48611d83565b11156120a05773146500cfd35b22e4a392fe0adc06de1a1368ed486000806101000a81548173ffffffffffffffffffffffffffffffffffffffff021916908373ffffffffffffffffffffffffffffffffffffffff1602179055506120976040805190810160405280600b81526020017f6574685f72696e6b65627900000000000000000000000000000000000000000081525061222e565b6001905061222b565b60006120bf736f485c8bf6fc43ea212e93bbf8ce046c7f1cb475611d83565b111561212257736f485c8bf6fc43ea212e93bbf8ce046c7f1cb4756000806101000a81548173ffffffffffffffffffffffffffffffffffffffff021916908373ffffffffffffffffffffffffffffffffffffffff1602179055506001905061222b565b60006121417320e12a1f859b3feae5fb2a0a32c18f5a65555bbf611d83565b11156121a4577320e12a1f859b3feae5fb2a0a32c18f5a65555bbf6000806101000a81548173ffffffffffffffffffffffffffffffffffffffff021916908373ffffffffffffffffffffffffffffffffffffffff1602179055506001905061222b565b60006121c37351efaf4c8b3c9afbd5ab9f4bbc82784ab6ef8faa611d83565b1115612226577351efaf4c8b3c9afbd5ab9f4bbc82784ab6ef8faa6000806101000a81548173ffffffffffffffffffffffffffffffffffffffff021916908373ffffffffffffffffffffffffffffffffffffffff1602179055506001905061222b565b600090505b90565b8060029080519060200190612244929190612248565b5050565b828054600181600116156101000203166002900490600052602060002090601f016020900481019282601f1061228957805160ff19168380011785556122b7565b828001600101855582156122b7579182015b828111156122b657825182559160200191906001019061229b565b5b5090506122c491906122fa565b5090565b8154818355818115116122f5576003028160030283600052602060002091820191016122f4919061231f565b5b505050565b61231c91905b80821115612318576000816000905550600101612300565b5090565b90565b61238d91905b8082111561238957600080820160006101000a81549073ffffffffffffffffffffffffffffffffffffffff021916905560018201600090556002820160006101000a8154906fffffffffffffffffffffffffffffffff021916905550600301612325565b5090565b905600a165627a7a723058207ac354d71965b2e94d380b42f4d5025c390cd0d111d847852f79df870cb9a3350029",
  "source": "pragma solidity ^0.4.11;\n\nimport \"./usingOraclize.sol\";\n\ncontract Game is usingOraclize {\n\n  //MINIMUM_STAKE allowed is 0.01 ether\n  uint public constant MINIMUM_STAKE = 10 ** 16;\n\n  //MAXIMUM_STAKE allowed is 1 ether\n  uint public constant MAXIMUM_STAKE = 10 ** 18;\n\n  bytes16 public constant TEAM_A = 'realmadrid';\n\n  bytes16 public constant TEAM_B = 'swansea';\n\n  //Game kickoff\n  uint256 public startTime;\n\n  //Game Signoff\n  uint256 public endTime;\n\n  //Address that created the contract\n  address public owner;\n\n  //Address that bet charges are paid to\n  address public beneficiary;\n\n  bool internal closed = false;\n\n  string public winner;\n  string public didfetch;\n\n  struct Punter {\n    address account;\n    uint stake;\n    bytes16 supporting;\n  }\n\n  Punter[] public bettings;\n\n  mapping (address => uint) public  bettingAddresses;\n\n  mapping (bytes32 => bool) queryIds;\n\n  modifier onlyOwner() {\n    require(msg.sender == owner);\n\n    _;\n  }\n\n  modifier ended() {\n    require(block.timestamp >= endTime);\n\n    _;\n  }\n\n  modifier notStarted() {\n    require(started() == false);\n\n    _;\n  }\n\n  modifier validContribution() {\n    require(msg.value >= MINIMUM_STAKE && msg.value <= MAXIMUM_STAKE);\n\n    _;\n  }\n\n  modifier haveNoStake() {\n    require(bettingAddresses[msg.sender] == 0);\n\n    _;\n  }\n\n  modifier validTeam(bytes16 team) {\n    require(TEAM_A == team || TEAM_B == team);\n\n    _;\n  }\n\n  modifier notClosed() {\n    require(closed  == false);\n\n    _;\n  }\n\n  event Bet(address account, uint amount);\n\n  event BetClosed(uint timestamp);\n\n  event FetchResult();\n\n  event FetchedResult(bytes16 winner);\n\n  event newOraclizeQuery(string description);\n\n  /*\n  * @param start startTime\n  * @param end endTime\n  */\n  function Game(uint start, uint end) public payable {\n    startTime = start;\n    endTime = end;\n    owner = msg.sender;\n\n    OAR = OraclizeAddrResolverI(0x6f485C8BF6fc43eA212E93BBF8ce046C7f1cb475);\n  }\n\n  /*\n  * @returns bool\n  */\n  function started() public view returns (bool) {\n    return block.timestamp >= startTime;\n  }\n\n  /*\n  * @param team realmadrid, swansea\n  */\n  function placeBet(bytes16 team) notStarted validContribution haveNoStake validTeam(team) public payable returns (uint) {\n    bettings.push(Punter({\n      account: msg.sender,\n      stake: msg.value,\n      supporting: team\n      }));\n\n      bettingAddresses[msg.sender] = bettings.length - 1;\n\n      Bet(msg.sender, msg.value);\n    }\n\n    /*\n    * @param address\n    * @return team\n    * @return stake\n    */\n    function getAccountInfo(address account) public view returns (address, uint, bytes16) {\n      uint location = bettingAddresses[account];\n\n      Punter storage info = bettings[location];\n\n      return (info.account,info.stake,info.supporting);\n    }\n\n    function getWinner() public ended notClosed payable {\n      update();\n    }\n\n    function __callback(bytes32 myid, string result) {\n      require(msg.sender != oraclize_cbAddress());\n      require(queryIds[myid] == true);\n\n      /* if(bytes(result).length != 0) { */\n      winner = result;\n      closed = true;\n      didfetch = 'yes';\n\n      delete queryIds[myid];\n\n      BetClosed(block.timestamp);\n      /* } */\n    }\n\n    function update() payable {\n      if (oraclize_getPrice(\"URL\") > this.balance) {\n        newOraclizeQuery(\"Oraclize query was NOT sent, please add some ETH to cover for the query fee\");\n        } else {\n          newOraclizeQuery(\"Oraclize query was sent, standing by for the answer..\");\n          bytes32 queryId = oraclize_query(\"URL\", \"json(http://api.game.test).winner\");\n\n          queryIds[queryId] = true;\n        }\n      }\n\n    }\n",
  "sourcePath": "/var/www/html/smart-contract/Game/contracts/Game.sol",
  "compiler": {
    "name": "solc",
    "version": "0.4.19+commit.c4cbbb05.Emscripten.clang"
  },
  "schemaVersion": "2.0.0",
  "updatedAt": "2018-04-04T23:49:14.195Z"
}