{
  "contractName": "Game",
  "abi": [
    {
      "constant": true,
      "inputs": [],
      "name": "MINIMUM_STAKE",
      "outputs": [
        {
          "name": "",
          "type": "uint256"
        }
      ],
      "payable": false,
      "stateMutability": "view",
      "type": "function"
    },
    {
      "constant": true,
      "inputs": [],
      "name": "TEAM_B",
      "outputs": [
        {
          "name": "",
          "type": "bytes16"
        }
      ],
      "payable": false,
      "stateMutability": "view",
      "type": "function"
    },
    {
      "constant": true,
      "inputs": [],
      "name": "endTime",
      "outputs": [
        {
          "name": "",
          "type": "uint256"
        }
      ],
      "payable": false,
      "stateMutability": "view",
      "type": "function"
    },
    {
      "constant": true,
      "inputs": [],
      "name": "beneficiary",
      "outputs": [
        {
          "name": "",
          "type": "address"
        }
      ],
      "payable": false,
      "stateMutability": "view",
      "type": "function"
    },
    {
      "constant": true,
      "inputs": [],
      "name": "startTime",
      "outputs": [
        {
          "name": "",
          "type": "uint256"
        }
      ],
      "payable": false,
      "stateMutability": "view",
      "type": "function"
    },
    {
      "constant": true,
      "inputs": [],
      "name": "owner",
      "outputs": [
        {
          "name": "",
          "type": "address"
        }
      ],
      "payable": false,
      "stateMutability": "view",
      "type": "function"
    },
    {
      "constant": true,
      "inputs": [
        {
          "name": "",
          "type": "uint256"
        }
      ],
      "name": "bettings",
      "outputs": [
        {
          "name": "account",
          "type": "address"
        },
        {
          "name": "stake",
          "type": "uint256"
        },
        {
          "name": "supporting",
          "type": "bytes16"
        }
      ],
      "payable": false,
      "stateMutability": "view",
      "type": "function"
    },
    {
      "constant": true,
      "inputs": [],
      "name": "MAXIMUM_STAKE",
      "outputs": [
        {
          "name": "",
          "type": "uint256"
        }
      ],
      "payable": false,
      "stateMutability": "view",
      "type": "function"
    },
    {
      "constant": true,
      "inputs": [],
      "name": "TEAM_A",
      "outputs": [
        {
          "name": "",
          "type": "bytes16"
        }
      ],
      "payable": false,
      "stateMutability": "view",
      "type": "function"
    },
    {
      "inputs": [
        {
          "name": "start",
          "type": "uint256"
        },
        {
          "name": "end",
          "type": "uint256"
        }
      ],
      "payable": true,
      "stateMutability": "payable",
      "type": "constructor"
    },
    {
      "anonymous": false,
      "inputs": [
        {
          "indexed": false,
          "name": "account",
          "type": "address"
        },
        {
          "indexed": false,
          "name": "amount",
          "type": "uint256"
        }
      ],
      "name": "Bet",
      "type": "event"
    },
    {
      "constant": true,
      "inputs": [],
      "name": "started",
      "outputs": [
        {
          "name": "",
          "type": "bool"
        }
      ],
      "payable": false,
      "stateMutability": "view",
      "type": "function"
    },
    {
      "constant": false,
      "inputs": [
        {
          "name": "team",
          "type": "bytes16"
        }
      ],
      "name": "placeBet",
      "outputs": [],
      "payable": true,
      "stateMutability": "payable",
      "type": "function"
    },
    {
      "constant": true,
      "inputs": [
        {
          "name": "account",
          "type": "address"
        }
      ],
      "name": "getAccountInfo",
      "outputs": [
        {
          "name": "team",
          "type": "bytes16"
        },
        {
          "name": "amount",
          "type": "uint256"
        }
      ],
      "payable": false,
      "stateMutability": "view",
      "type": "function"
    },
    {
      "constant": false,
      "inputs": [
        {
          "name": "myId",
          "type": "bytes32"
        },
        {
          "name": "result",
          "type": "string"
        }
      ],
      "name": "__callback",
      "outputs": [],
      "payable": false,
      "stateMutability": "nonpayable",
      "type": "function"
    },
    {
      "constant": false,
      "inputs": [
        {
          "name": "myid",
          "type": "bytes32"
        },
        {
          "name": "result",
          "type": "string"
        },
        {
          "name": "proof",
          "type": "bytes"
        }
      ],
      "name": "__callback",
      "outputs": [],
      "payable": false,
      "stateMutability": "nonpayable",
      "type": "function"
    }
  ],
  "bytecode": "0x606060405260405160408061088e83398101604052808051906020019091908051906020019091905050816005819055508060068190555033600760006101000a81548173ffffffffffffffffffffffffffffffffffffffff021916908373ffffffffffffffffffffffffffffffffffffffff160217905550736f485c8bf6fc43ea212e93bbf8ce046c7f1cb4756000806101000a81548173ffffffffffffffffffffffffffffffffffffffff021916908373ffffffffffffffffffffffffffffffffffffffff16021790555050506107b1806100dd6000396000f3006060604052600436106100d0576000357c0100000000000000000000000000000000000000000000000000000000900463ffffffff16806308dbbb03146100d55780630daec9e4146100fe5780631f2698ab1461014d57806327dc297e1461017a5780633197cbb6146101e457806338af3eed1461020d57806338bbfa501461026257806348c4ad911461030f57806378e979251461033a5780637b510fe8146103635780638da5cb5b146103dd5780639e3f842814610432578063d693d207146104c9578063db58fe95146104f2575b600080fd5b34156100e057600080fd5b6100e8610541565b6040518082815260200191505060405180910390f35b341561010957600080fd5b61011161054c565b60405180826fffffffffffffffffffffffffffffffff19166fffffffffffffffffffffffffffffffff1916815260200191505060405180910390f35b341561015857600080fd5b610160610570565b604051808215151515815260200191505060405180910390f35b341561018557600080fd5b6101e260048080356000191690602001909190803590602001908201803590602001908080601f0160208091040260200160405190810160405280939291908181526020018383808284378201915050505050509190505061057d565b005b34156101ef57600080fd5b6101f7610581565b6040518082815260200191505060405180910390f35b341561021857600080fd5b610220610587565b604051808273ffffffffffffffffffffffffffffffffffffffff1673ffffffffffffffffffffffffffffffffffffffff16815260200191505060405180910390f35b341561026d57600080fd5b61030d60048080356000191690602001909190803590602001908201803590602001908080601f0160208091040260200160405190810160405280939291908181526020018383808284378201915050505050509190803590602001908201803590602001908080601f016020809104026020016040519081016040528093929190818152602001838380828437820191505050505050919050506105ad565b005b61033860048080356fffffffffffffffffffffffffffffffff19169060200190919050506105b2565b005b341561034557600080fd5b61034d6105b5565b6040518082815260200191505060405180910390f35b341561036e57600080fd5b61039a600480803573ffffffffffffffffffffffffffffffffffffffff169060200190919050506105bb565b60405180836fffffffffffffffffffffffffffffffff19166fffffffffffffffffffffffffffffffff191681526020018281526020019250505060405180910390f35b34156103e857600080fd5b6103f06106b9565b604051808273ffffffffffffffffffffffffffffffffffffffff1673ffffffffffffffffffffffffffffffffffffffff16815260200191505060405180910390f35b341561043d57600080fd5b61045360048080359060200190919050506106df565b604051808473ffffffffffffffffffffffffffffffffffffffff1673ffffffffffffffffffffffffffffffffffffffff168152602001838152602001826fffffffffffffffffffffffffffffffff19166fffffffffffffffffffffffffffffffff19168152602001935050505060405180910390f35b34156104d457600080fd5b6104dc610755565b6040518082815260200191505060405180910390f35b34156104fd57600080fd5b610505610761565b60405180826fffffffffffffffffffffffffffffffff19166fffffffffffffffffffffffffffffffff1916815260200191505060405180910390f35b662386f26fc1000081565b7f7377616e7365610000000000000000000000000000000000000000000000000081565b6000600554421015905090565b5050565b60065481565b600860009054906101000a900473ffffffffffffffffffffffffffffffffffffffff1681565b505050565b50565b60055481565b600080600080600a60008673ffffffffffffffffffffffffffffffffffffffff1673ffffffffffffffffffffffffffffffffffffffff168152602001908152602001600020541415151561060e57600080fd5b600a60008573ffffffffffffffffffffffffffffffffffffffff1673ffffffffffffffffffffffffffffffffffffffff16815260200190815260200160002054905060098181548110151561065f57fe5b906000526020600020906003020160020160009054906101000a90047001000000000000000000000000000000000260098281548110151561069d57fe5b9060005260206000209060030201600101549250925050915091565b600760009054906101000a900473ffffffffffffffffffffffffffffffffffffffff1681565b6009818154811015156106ee57fe5b90600052602060002090600302016000915090508060000160009054906101000a900473ffffffffffffffffffffffffffffffffffffffff16908060010154908060020160009054906101000a900470010000000000000000000000000000000002905083565b670de0b6b3a764000081565b7f7265616c6d616472696400000000000000000000000000000000000000000000815600a165627a7a72305820f39e317714957aea5a9314632c33f9ae787d3a2ff61d4b654da4374fcefd00b10029",
  "source": "pragma solidity ^0.4.11;\n\nimport \"./usingOraclize.sol\";\n\ncontract Game is usingOraclize {\n\n  //MINIMUM_STAKE allowed is 0.01 ether\n  uint public constant MINIMUM_STAKE = 10 ** 16;\n\n  //MAXIMUM_STAKE allowed is 1 ether\n  uint public constant MAXIMUM_STAKE = 10 ** 18;\n\n  bytes16 public constant TEAM_A = 'realmadrid';\n\n  bytes16 public constant TEAM_B = 'swansea';\n\n  //Game kickoff\n  uint256 public startTime;\n\n  //Game Signoff\n  uint256 public endTime;\n\n  //Address that created the contract\n  address public owner;\n\n  //Address that bet charges are paid to\n  address public beneficiary;\n\n  struct Punter {\n    address account;\n    uint stake;\n    bytes16 supporting;\n  }\n\n  Punter[] public bettings;\n\n  mapping (address => uint) bettingAddresses;\n\n  modifier onlyOwner() {\n    require(msg.sender == owner);\n\n    _;\n  }\n\n  modifier notStarted() {\n    require(started() == false);\n\n    _;\n  }\n\n  modifier validContribution() {\n    require(msg.value >= MINIMUM_STAKE || msg.value <= MAXIMUM_STAKE);\n\n    _;\n  }\n\n  modifier haveNoStake() {\n    require(bettingAddresses[msg.sender] == 0);\n\n    _;\n  }\n\n  modifier validTeam(bytes16 team) {\n    require(TEAM_A == team || TEAM_B == team);\n\n    _;\n  }\n\n  event Bet(address account, uint amount);\n\n  /*\n  * @param start startTime\n  * @param end endTime\n  */\n  function Game(uint start, uint end) public payable {\n    startTime = start;\n    endTime = end;\n    owner = msg.sender;\n\n    OAR = OraclizeAddrResolverI(0x6f485C8BF6fc43eA212E93BBF8ce046C7f1cb475);\n  }\n\n  /*\n  * @returns bool\n  */\n  function started() public view returns (bool) {\n    return block.timestamp >= startTime;\n  }\n\n  /*\n  * @param team realmadrid, swansea\n  */\n  /* function placeBet(bytes16 team) notStarted validContribution haveNoStake validTeam(team) public payable { */\n  function placeBet(bytes16 team) public payable {\n    /* bettings.push(Punter({\n      account: msg.sender,\n      stake: msg.value,\n      supporting: team\n      }));\n\n      bettingAddresses[msg.sender] = bettings.length;\n\n      Bet(msg.sender, msg.value); */\n    }\n\n    /*\n    * @param address\n    * @return team\n    * @return stake\n    */\n    function getAccountInfo(address account) public view returns (bytes16 team, uint amount) {\n      require(bettingAddresses[account] != 0);\n\n      uint pointer =  bettingAddresses[account];\n\n      return (bettings[pointer].supporting, bettings[pointer].stake);\n    }\n\n    //Oraclize callback method\n    function __callback(bytes32 myId, string result) {\n\n    }\n\n  }\n",
  "sourcePath": "/var/www/html/smart-contract/Game/contracts/Game.sol",
  "compiler": {
    "name": "solc",
    "version": "0.4.19+commit.c4cbbb05.Emscripten.clang"
  },
  "schemaVersion": "2.0.0",
  "updatedAt": "2018-04-04T10:52:22.970Z"
}