{
  "contractName": "Game",
  "abi": [
    {
      "constant": true,
      "inputs": [],
      "name": "MINIMUM_STAKE",
      "outputs": [
        {
          "name": "",
          "type": "uint256"
        }
      ],
      "payable": false,
      "stateMutability": "view",
      "type": "function"
    },
    {
      "constant": true,
      "inputs": [],
      "name": "TEAM_B",
      "outputs": [
        {
          "name": "",
          "type": "string"
        }
      ],
      "payable": false,
      "stateMutability": "view",
      "type": "function"
    },
    {
      "constant": true,
      "inputs": [
        {
          "name": "",
          "type": "bytes32"
        }
      ],
      "name": "queryIds",
      "outputs": [
        {
          "name": "",
          "type": "bool"
        }
      ],
      "payable": false,
      "stateMutability": "view",
      "type": "function"
    },
    {
      "constant": true,
      "inputs": [],
      "name": "endTime",
      "outputs": [
        {
          "name": "",
          "type": "uint256"
        }
      ],
      "payable": false,
      "stateMutability": "view",
      "type": "function"
    },
    {
      "constant": true,
      "inputs": [],
      "name": "totalHolding",
      "outputs": [
        {
          "name": "",
          "type": "uint256"
        }
      ],
      "payable": false,
      "stateMutability": "view",
      "type": "function"
    },
    {
      "constant": true,
      "inputs": [],
      "name": "referee",
      "outputs": [
        {
          "name": "",
          "type": "address"
        }
      ],
      "payable": false,
      "stateMutability": "view",
      "type": "function"
    },
    {
      "constant": true,
      "inputs": [],
      "name": "closed",
      "outputs": [
        {
          "name": "",
          "type": "bool"
        }
      ],
      "payable": false,
      "stateMutability": "view",
      "type": "function"
    },
    {
      "constant": true,
      "inputs": [
        {
          "name": "",
          "type": "address"
        }
      ],
      "name": "payoutAddresses",
      "outputs": [
        {
          "name": "",
          "type": "uint256"
        }
      ],
      "payable": false,
      "stateMutability": "view",
      "type": "function"
    },
    {
      "constant": true,
      "inputs": [
        {
          "name": "",
          "type": "address"
        }
      ],
      "name": "payouts",
      "outputs": [
        {
          "name": "",
          "type": "uint256"
        }
      ],
      "payable": false,
      "stateMutability": "view",
      "type": "function"
    },
    {
      "constant": true,
      "inputs": [],
      "name": "startTime",
      "outputs": [
        {
          "name": "",
          "type": "uint256"
        }
      ],
      "payable": false,
      "stateMutability": "view",
      "type": "function"
    },
    {
      "constant": true,
      "inputs": [],
      "name": "owner",
      "outputs": [
        {
          "name": "",
          "type": "address"
        }
      ],
      "payable": false,
      "stateMutability": "view",
      "type": "function"
    },
    {
      "constant": true,
      "inputs": [
        {
          "name": "",
          "type": "uint256"
        }
      ],
      "name": "bettings",
      "outputs": [
        {
          "name": "account",
          "type": "address"
        },
        {
          "name": "stake",
          "type": "uint256"
        },
        {
          "name": "supporting",
          "type": "string"
        }
      ],
      "payable": false,
      "stateMutability": "view",
      "type": "function"
    },
    {
      "constant": true,
      "inputs": [],
      "name": "totalPayable",
      "outputs": [
        {
          "name": "",
          "type": "uint256"
        }
      ],
      "payable": false,
      "stateMutability": "view",
      "type": "function"
    },
    {
      "constant": true,
      "inputs": [
        {
          "name": "",
          "type": "address"
        }
      ],
      "name": "bettingAddresses",
      "outputs": [
        {
          "name": "",
          "type": "uint256"
        }
      ],
      "payable": false,
      "stateMutability": "view",
      "type": "function"
    },
    {
      "constant": true,
      "inputs": [],
      "name": "MAXIMUM_STAKE",
      "outputs": [
        {
          "name": "",
          "type": "uint256"
        }
      ],
      "payable": false,
      "stateMutability": "view",
      "type": "function"
    },
    {
      "constant": true,
      "inputs": [
        {
          "name": "",
          "type": "uint256"
        }
      ],
      "name": "rations",
      "outputs": [
        {
          "name": "account",
          "type": "address"
        },
        {
          "name": "percentage",
          "type": "uint256"
        }
      ],
      "payable": false,
      "stateMutability": "view",
      "type": "function"
    },
    {
      "constant": true,
      "inputs": [],
      "name": "TEAM_A",
      "outputs": [
        {
          "name": "",
          "type": "string"
        }
      ],
      "payable": false,
      "stateMutability": "view",
      "type": "function"
    },
    {
      "constant": true,
      "inputs": [],
      "name": "winner",
      "outputs": [
        {
          "name": "",
          "type": "string"
        }
      ],
      "payable": false,
      "stateMutability": "view",
      "type": "function"
    },
    {
      "inputs": [
        {
          "name": "start",
          "type": "uint256"
        },
        {
          "name": "end",
          "type": "uint256"
        }
      ],
      "payable": true,
      "stateMutability": "payable",
      "type": "constructor"
    },
    {
      "payable": true,
      "stateMutability": "payable",
      "type": "fallback"
    },
    {
      "anonymous": false,
      "inputs": [
        {
          "indexed": false,
          "name": "account",
          "type": "address"
        },
        {
          "indexed": false,
          "name": "amount",
          "type": "uint256"
        }
      ],
      "name": "Bet",
      "type": "event"
    },
    {
      "anonymous": false,
      "inputs": [
        {
          "indexed": false,
          "name": "timestamp",
          "type": "uint256"
        },
        {
          "indexed": false,
          "name": "result",
          "type": "string"
        }
      ],
      "name": "BetClosed",
      "type": "event"
    },
    {
      "anonymous": false,
      "inputs": [
        {
          "indexed": false,
          "name": "winner",
          "type": "string"
        }
      ],
      "name": "FetchedResult",
      "type": "event"
    },
    {
      "anonymous": false,
      "inputs": [
        {
          "indexed": false,
          "name": "description",
          "type": "string"
        }
      ],
      "name": "newOraclizeQuery",
      "type": "event"
    },
    {
      "anonymous": false,
      "inputs": [
        {
          "indexed": false,
          "name": "winning",
          "type": "uint256"
        }
      ],
      "name": "Payment",
      "type": "event"
    },
    {
      "constant": true,
      "inputs": [],
      "name": "started",
      "outputs": [
        {
          "name": "",
          "type": "bool"
        }
      ],
      "payable": false,
      "stateMutability": "view",
      "type": "function"
    },
    {
      "constant": false,
      "inputs": [
        {
          "name": "team",
          "type": "string"
        }
      ],
      "name": "placeBet",
      "outputs": [
        {
          "name": "",
          "type": "uint256"
        }
      ],
      "payable": true,
      "stateMutability": "payable",
      "type": "function"
    },
    {
      "constant": false,
      "inputs": [],
      "name": "endGame",
      "outputs": [],
      "payable": false,
      "stateMutability": "nonpayable",
      "type": "function"
    },
    {
      "constant": true,
      "inputs": [
        {
          "name": "account",
          "type": "address"
        }
      ],
      "name": "getAccountInfo",
      "outputs": [
        {
          "name": "",
          "type": "address"
        },
        {
          "name": "",
          "type": "uint256"
        },
        {
          "name": "",
          "type": "string"
        }
      ],
      "payable": false,
      "stateMutability": "view",
      "type": "function"
    },
    {
      "constant": false,
      "inputs": [],
      "name": "getWinner",
      "outputs": [],
      "payable": true,
      "stateMutability": "payable",
      "type": "function"
    },
    {
      "constant": false,
      "inputs": [
        {
          "name": "myid",
          "type": "bytes32"
        },
        {
          "name": "result",
          "type": "string"
        }
      ],
      "name": "__callback",
      "outputs": [],
      "payable": false,
      "stateMutability": "nonpayable",
      "type": "function"
    },
    {
      "constant": false,
      "inputs": [
        {
          "name": "myid",
          "type": "bytes32"
        },
        {
          "name": "result",
          "type": "string"
        },
        {
          "name": "proof",
          "type": "bytes"
        }
      ],
      "name": "__callback",
      "outputs": [],
      "payable": false,
      "stateMutability": "nonpayable",
      "type": "function"
    },
    {
      "constant": false,
      "inputs": [],
      "name": "distributeStake",
      "outputs": [
        {
          "name": "",
          "type": "address"
        }
      ],
      "payable": true,
      "stateMutability": "payable",
      "type": "function"
    },
    {
      "constant": true,
      "inputs": [
        {
          "name": "account",
          "type": "address"
        }
      ],
      "name": "getAccountPercentage",
      "outputs": [
        {
          "name": "percentage",
          "type": "uint256"
        }
      ],
      "payable": false,
      "stateMutability": "view",
      "type": "function"
    },
    {
      "constant": true,
      "inputs": [
        {
          "name": "account",
          "type": "address"
        }
      ],
      "name": "getBalance",
      "outputs": [
        {
          "name": "balance",
          "type": "uint256"
        }
      ],
      "payable": false,
      "stateMutability": "view",
      "type": "function"
    }
  ],
  "bytecode": "0x60606040526000600860146101000a81548160ff021916908315150217905550670de0b6b3a7640000600c5560405160408061329883398101604052808051906020019091908051906020019091905050816005819055508060068190555033600760006101000a81548173ffffffffffffffffffffffffffffffffffffffff021916908373ffffffffffffffffffffffffffffffffffffffff160217905550736f485c8bf6fc43ea212e93bbf8ce046c7f1cb4756000806101000a81548173ffffffffffffffffffffffffffffffffffffffff021916908373ffffffffffffffffffffffffffffffffffffffff1602179055505050613194806101046000396000f30060606040526004361061016a576000357c0100000000000000000000000000000000000000000000000000000000900463ffffffff16806308dbbb031461016c5780630daec9e4146101955780630df477f7146102235780631f2698ab1461027057806327dc297e1461029d57806331460e3d146103075780633197cbb614610346578063322807b51461036f57806338bbfa50146103985780633b1bebd114610445578063597e1fb51461049a57806360d4b8be146104c757806365bcfbe7146105145780636cbc2ded1461056157806378e97925146105765780637b510fe81461059f57806383bc6ba41461068b5780638da5cb5b146106d55780638e7ea5b21461072a57806397bfeb88146107345780639e3f84281461079a578063a2eafc811461088d578063d2b94b81146108b6578063d693d20714610903578063d90f9e801461092c578063db58fe9514610996578063dfbf53ae14610a24578063f8b2cb4f14610ab2575b005b341561017757600080fd5b61017f610aff565b6040518082815260200191505060405180910390f35b34156101a057600080fd5b6101a8610b0a565b6040518080602001828103825283818151815260200191508051906020019080838360005b838110156101e85780820151818401526020810190506101cd565b50505050905090810190601f1680156102155780820380516001836020036101000a031916815260200191505b509250505060405180910390f35b341561022e57600080fd5b61025a600480803573ffffffffffffffffffffffffffffffffffffffff16906020019091905050610b43565b6040518082815260200191505060405180910390f35b341561027b57600080fd5b610283610bb1565b604051808215151515815260200191505060405180910390f35b34156102a857600080fd5b61030560048080356000191690602001909190803590602001908201803590602001908080601f01602080910402602001604051908101604052809392919081815260200183838082843782019150505050505091905050610bbe565b005b341561031257600080fd5b61032c600480803560001916906020019091905050610ddb565b604051808215151515815260200191505060405180910390f35b341561035157600080fd5b610359610dfb565b6040518082815260200191505060405180910390f35b341561037a57600080fd5b610382610e01565b6040518082815260200191505060405180910390f35b34156103a357600080fd5b61044360048080356000191690602001909190803590602001908201803590602001908080601f0160208091040260200160405190810160405280939291908181526020018383808284378201915050505050509190803590602001908201803590602001908080601f01602080910402602001604051908101604052809392919081815260200183838082843782019150505050505091905050610e07565b005b341561045057600080fd5b610458610e0c565b604051808273ffffffffffffffffffffffffffffffffffffffff1673ffffffffffffffffffffffffffffffffffffffff16815260200191505060405180910390f35b34156104a557600080fd5b6104ad610e32565b604051808215151515815260200191505060405180910390f35b34156104d257600080fd5b6104fe600480803573ffffffffffffffffffffffffffffffffffffffff16906020019091905050610e45565b6040518082815260200191505060405180910390f35b341561051f57600080fd5b61054b600480803573ffffffffffffffffffffffffffffffffffffffff16906020019091905050610e5d565b6040518082815260200191505060405180910390f35b341561056c57600080fd5b610574610e75565b005b341561058157600080fd5b610589610eee565b6040518082815260200191505060405180910390f35b34156105aa57600080fd5b6105d6600480803573ffffffffffffffffffffffffffffffffffffffff16906020019091905050610ef4565b604051808473ffffffffffffffffffffffffffffffffffffffff1673ffffffffffffffffffffffffffffffffffffffff16815260200183815260200180602001828103825283818151815260200191508051906020019080838360005b8381101561064e578082015181840152602081019050610633565b50505050905090810190601f16801561067b5780820380516001836020036101000a031916815260200191505b5094505050505060405180910390f35b61069361103c565b604051808273ffffffffffffffffffffffffffffffffffffffff1673ffffffffffffffffffffffffffffffffffffffff16815260200191505060405180910390f35b34156106e057600080fd5b6106e86111ca565b604051808273ffffffffffffffffffffffffffffffffffffffff1673ffffffffffffffffffffffffffffffffffffffff16815260200191505060405180910390f35b6107326111f0565b005b610784600480803590602001908201803590602001908080601f01602080910402602001604051908101604052809392919081815260200183838082843782019150505050505091905050611499565b6040518082815260200191505060405180910390f35b34156107a557600080fd5b6107bb60048080359060200190919050506118d0565b604051808473ffffffffffffffffffffffffffffffffffffffff1673ffffffffffffffffffffffffffffffffffffffff1681526020018381526020018060200182810382528381815460018160011615610100020316600290048152602001915080546001816001161561010002031660029004801561087c5780601f106108515761010080835404028352916020019161087c565b820191906000526020600020905b81548152906001019060200180831161085f57829003601f168201915b505094505050505060405180910390f35b341561089857600080fd5b6108a0611928565b6040518082815260200191505060405180910390f35b34156108c157600080fd5b6108ed600480803573ffffffffffffffffffffffffffffffffffffffff1690602001909190505061192e565b6040518082815260200191505060405180910390f35b341561090e57600080fd5b610916611946565b6040518082815260200191505060405180910390f35b341561093757600080fd5b61094d6004808035906020019091905050611952565b604051808373ffffffffffffffffffffffffffffffffffffffff1673ffffffffffffffffffffffffffffffffffffffff1681526020018281526020019250505060405180910390f35b34156109a157600080fd5b6109a96119a5565b6040518080602001828103825283818151815260200191508051906020019080838360005b838110156109e95780820151818401526020810190506109ce565b50505050905090810190601f168015610a165780820380516001836020036101000a031916815260200191505b509250505060405180910390f35b3415610a2f57600080fd5b610a376119de565b6040518080602001828103825283818151815260200191508051906020019080838360005b83811015610a77578082015181840152602081019050610a5c565b50505050905090810190601f168015610aa45780820380516001836020036101000a031916815260200191505b509250505060405180910390f35b3415610abd57600080fd5b610ae9600480803573ffffffffffffffffffffffffffffffffffffffff16906020019091905050611a7c565b6040518082815260200191505060405180910390f35b662386f26fc1000081565b6040805190810160405280600781526020017f7377616e7365610000000000000000000000000000000000000000000000000081525081565b600080601060008473ffffffffffffffffffffffffffffffffffffffff1673ffffffffffffffffffffffffffffffffffffffff168152602001908152602001600020549050600e81815481101515610b9757fe5b906000526020600020906002020160010154915050919050565b6000600554421015905090565b610bc6611a9d565b73ffffffffffffffffffffffffffffffffffffffff163373ffffffffffffffffffffffffffffffffffffffff16141515610bff57600080fd5b6001151560126000846000191660001916815260200190815260200160002060009054906101000a900460ff161515141515610c3a57600080fd5b80600b9080519060200190610c50929190612ed7565b506001600860146101000a81548160ff02191690831515021790555060126000836000191660001916815260200190815260200160002060006101000a81549060ff02191690557fb9d30e84006b05f64ca0bda91ea34380c584aeaefe1f0215805d1258f911f1c6816040518080602001828103825283818151815260200191508051906020019080838360005b83811015610cf9578082015181840152602081019050610cde565b50505050905090810190601f168015610d265780820380516001836020036101000a031916815260200191505b509250505060405180910390a17fb72bedf69f0175431eee40001e01ab747f94200cd3235286e6015c698f1b973942826040518083815260200180602001828103825283818151815260200191508051906020019080838360005b83811015610d9c578082015181840152602081019050610d81565b50505050905090810190601f168015610dc95780820380516001836020036101000a031916815260200191505b50935050505060405180910390a15050565b60126020528060005260406000206000915054906101000a900460ff1681565b60065481565b600a5481565b505050565b600860009054906101000a900473ffffffffffffffffffffffffffffffffffffffff1681565b600860149054906101000a900460ff1681565b60106020528060005260406000206000915090505481565b600f6020528060005260406000206000915090505481565b600760009054906101000a900473ffffffffffffffffffffffffffffffffffffffff1673ffffffffffffffffffffffffffffffffffffffff163373ffffffffffffffffffffffffffffffffffffffff16141515610ed157600080fd5b6001600860146101000a81548160ff021916908315150217905550565b60055481565b600080610eff612f57565b600080601160008773ffffffffffffffffffffffffffffffffffffffff1673ffffffffffffffffffffffffffffffffffffffff168152602001908152602001600020549150600d82815481101515610f5357fe5b906000526020600020906003020190508060000160009054906101000a900473ffffffffffffffffffffffffffffffffffffffff16816001015482600201808054600181600116156101000203166002900480601f0160208091040260200160405190810160405280929190818152602001828054600181600116156101000203166002900480156110265780601f10610ffb57610100808354040283529160200191611026565b820191906000526020600020905b81548152906001019060200180831161100957829003601f168201915b5050505050905094509450945050509193909250565b600080600080600760009054906101000a900473ffffffffffffffffffffffffffffffffffffffff1673ffffffffffffffffffffffffffffffffffffffff163373ffffffffffffffffffffffffffffffffffffffff1614151561109e57600080fd5b6110a6611db3565b6110ae61205c565b600092505b600e805490508310156111c457600e838154811015156110cf57fe5b906000526020600020906002020191506009546110fa606484600101546120b490919063ffffffff16565b029050611118670de0b6b3a7640000826120b490919063ffffffff16565b905080600f60008460000160009054906101000a900473ffffffffffffffffffffffffffffffffffffffff1673ffffffffffffffffffffffffffffffffffffffff1673ffffffffffffffffffffffffffffffffffffffff168152602001908152602001600020819055507fd73298c59e2f8823f5313441b46ced5bddf204a2d4d72bdd904a6d6785e51ae9816040518082815260200191505060405180910390a18260010192506110b3565b50505090565b600760009054906101000a900473ffffffffffffffffffffffffffffffffffffffff1681565b600060065442101580611216575060011515600860149054906101000a900460ff161515145b151561122157600080fd5b3073ffffffffffffffffffffffffffffffffffffffff16316112776040805190810160405280600381526020017f55524c00000000000000000000000000000000000000000000000000000000008152506120ca565b1115611336577f46cb989ef9cef13e930e3b7f286225a086e716a90d63e0b7da85d310a9db0c9a60405180806020018281038252604b8152602001807f4f7261636c697a6520717565727920776173204e4f542073656e742c20706c6581526020017f6173652061646420736f6d652045544820746f20636f76657220666f7220746881526020017f652071756572792066656500000000000000000000000000000000000000000081525060600191505060405180910390a1611496565b7f46cb989ef9cef13e930e3b7f286225a086e716a90d63e0b7da85d310a9db0c9a6040518080602001828103825260358152602001807f4f7261636c697a65207175657279207761732073656e742c207374616e64696e81526020017f6720627920666f722074686520616e737765722e2e000000000000000000000081525060400191505060405180910390a161145f6040805190810160405280600381526020017f55524c0000000000000000000000000000000000000000000000000000000000815250606060405190810160405280602981526020017f6a736f6e2868747470733a2f2f7777772e6170692e6f67756e6d6f79652e636f81526020017f6d292e77696e6e65720000000000000000000000000000000000000000000000815250612452565b9050600160126000836000191660001916815260200190815260200160002060006101000a81548160ff0219169083151502179055505b50565b60008015156114a6610bb1565b15151415156114b457600080fd5b662386f26fc1000034101580156114d35750670de0b6b3a76400003411155b15156114de57600080fd5b6000601160003373ffffffffffffffffffffffffffffffffffffffff1673ffffffffffffffffffffffffffffffffffffffff1681526020019081526020016000205414151561152c57600080fd5b81806040518082805190602001908083835b602083101515611563578051825260208201915060208101905060208303925061153e565b6001836020036101000a0380198251168184511680821785525050505050509050019150506040518091039020600019166040805190810160405280600a81526020017f7265616c6d6164726964000000000000000000000000000000000000000000008152506040518082805190602001908083835b6020831015156115ff57805182526020820191506020810190506020830392506115da565b6001836020036101000a038019825116818451168082178552505050505050905001915050604051809103902060001916148061173c5750806040518082805190602001908083835b60208310151561166d5780518252602082019150602081019050602083039250611648565b6001836020036101000a0380198251168184511680821785525050505050509050019150506040518091039020600019166040805190810160405280600781526020017f7377616e736561000000000000000000000000000000000000000000000000008152506040518082805190602001908083835b60208310151561170957805182526020820191506020810190506020830392506116e4565b6001836020036101000a038019825116818451168082178552505050505050905001915050604051809103902060001916145b151561174757600080fd5b600d805480600101828161175b9190612f6b565b916000526020600020906003020160006060604051908101604052803373ffffffffffffffffffffffffffffffffffffffff16815260200134815260200187815250909190915060008201518160000160006101000a81548173ffffffffffffffffffffffffffffffffffffffff021916908373ffffffffffffffffffffffffffffffffffffffff16021790555060208201518160010155604082015181600201908051906020019061180f929190612f9d565b505050506001600d8054905003601160003373ffffffffffffffffffffffffffffffffffffffff1673ffffffffffffffffffffffffffffffffffffffff168152602001908152602001600020819055507fc0ae20ffbb1eca06a840c35912bdb9f8e6e1fad1f028c875be0ddf54d480d71e3334604051808373ffffffffffffffffffffffffffffffffffffffff1673ffffffffffffffffffffffffffffffffffffffff1681526020018281526020019250505060405180910390a150919050565b600d818154811015156118df57fe5b90600052602060002090600302016000915090508060000160009054906101000a900473ffffffffffffffffffffffffffffffffffffffff169080600101549080600201905083565b60095481565b60116020528060005260406000206000915090505481565b670de0b6b3a764000081565b600e8181548110151561196157fe5b90600052602060002090600202016000915090508060000160009054906101000a900473ffffffffffffffffffffffffffffffffffffffff16908060010154905082565b6040805190810160405280600a81526020017f7265616c6d61647269640000000000000000000000000000000000000000000081525081565b600b8054600181600116156101000203166002900480601f016020809104026020016040519081016040528092919081815260200182805460018160011615610100020316600290048015611a745780601f10611a4957610100808354040283529160200191611a74565b820191906000526020600020905b815481529060010190602001808311611a5757829003601f168201915b505050505081565b60008173ffffffffffffffffffffffffffffffffffffffff16319050919050565b6000806000809054906101000a900473ffffffffffffffffffffffffffffffffffffffff1673ffffffffffffffffffffffffffffffffffffffff161480611b0d57506000611b0b6000809054906101000a900473ffffffffffffffffffffffffffffffffffffffff16612994565b145b15611b1e57611b1c600061299f565b505b6000809054906101000a900473ffffffffffffffffffffffffffffffffffffffff1673ffffffffffffffffffffffffffffffffffffffff166338cc48316000604051602001526040518163ffffffff167c0100000000000000000000000000000000000000000000000000000000028152600401602060405180830381600087803b1515611bab57600080fd5b6102c65a03f11515611bbc57600080fd5b5050506040518051905073ffffffffffffffffffffffffffffffffffffffff16600160009054906101000a900473ffffffffffffffffffffffffffffffffffffffff1673ffffffffffffffffffffffffffffffffffffffff16141515611d05576000809054906101000a900473ffffffffffffffffffffffffffffffffffffffff1673ffffffffffffffffffffffffffffffffffffffff166338cc48316000604051602001526040518163ffffffff167c0100000000000000000000000000000000000000000000000000000000028152600401602060405180830381600087803b1515611ca957600080fd5b6102c65a03f11515611cba57600080fd5b50505060405180519050600160006101000a81548173ffffffffffffffffffffffffffffffffffffffff021916908373ffffffffffffffffffffffffffffffffffffffff1602179055505b600160009054906101000a900473ffffffffffffffffffffffffffffffffffffffff1673ffffffffffffffffffffffffffffffffffffffff1663c281d19e6000604051602001526040518163ffffffff167c0100000000000000000000000000000000000000000000000000000000028152600401602060405180830381600087803b1515611d9357600080fd5b6102c65a03f11515611da457600080fd5b50505060405180519050905090565b6000806000600d80549050111515611dca57600080fd5b600091505b600d8054905082101561205857600d82815481101515611deb57fe5b90600052602060002090600302019050600b6040518082805460018160011615610100020316600290048015611e585780601f10611e36576101008083540402835291820191611e58565b820191906000526020600020905b815481529060010190602001808311611e44575b5050915050604051809103902060001916816002016040518082805460018160011615610100020316600290048015611ec85780601f10611ea6576101008083540402835291820191611ec8565b820191906000526020600020905b815481529060010190602001808311611eb4575b50509150506040518091039020600019161415612038578060010154600a60008282540192505081905550600e8054806001018281611f07919061301d565b9160005260206000209060020201600060408051908101604052808560000160009054906101000a900473ffffffffffffffffffffffffffffffffffffffff1673ffffffffffffffffffffffffffffffffffffffff1681526020018560010154815250909190915060008201518160000160006101000a81548173ffffffffffffffffffffffffffffffffffffffff021916908373ffffffffffffffffffffffffffffffffffffffff160217905550602082015181600101555050506001600e8054905003601060008360000160009054906101000a900473ffffffffffffffffffffffffffffffffffffffff1673ffffffffffffffffffffffffffffffffffffffff1673ffffffffffffffffffffffffffffffffffffffff1681526020019081526020016000208190555061204d565b80600101546009600082825401925050819055505b816001019150611dcf565b5050565b600080600091505b600e805490508210156120b057600e8281548110151561208057fe5b9060005260206000209060020201905061209d81600101546129b0565b8160010181905550816001019150612064565b5050565b600081838115156120c157fe5b04905092915050565b6000806000809054906101000a900473ffffffffffffffffffffffffffffffffffffffff1673ffffffffffffffffffffffffffffffffffffffff16148061213a575060006121386000809054906101000a900473ffffffffffffffffffffffffffffffffffffffff16612994565b145b1561214b57612149600061299f565b505b6000809054906101000a900473ffffffffffffffffffffffffffffffffffffffff1673ffffffffffffffffffffffffffffffffffffffff166338cc48316000604051602001526040518163ffffffff167c0100000000000000000000000000000000000000000000000000000000028152600401602060405180830381600087803b15156121d857600080fd5b6102c65a03f115156121e957600080fd5b5050506040518051905073ffffffffffffffffffffffffffffffffffffffff16600160009054906101000a900473ffffffffffffffffffffffffffffffffffffffff1673ffffffffffffffffffffffffffffffffffffffff16141515612332576000809054906101000a900473ffffffffffffffffffffffffffffffffffffffff1673ffffffffffffffffffffffffffffffffffffffff166338cc48316000604051602001526040518163ffffffff167c0100000000000000000000000000000000000000000000000000000000028152600401602060405180830381600087803b15156122d657600080fd5b6102c65a03f115156122e757600080fd5b50505060405180519050600160006101000a81548173ffffffffffffffffffffffffffffffffffffffff021916908373ffffffffffffffffffffffffffffffffffffffff1602179055505b600160009054906101000a900473ffffffffffffffffffffffffffffffffffffffff1673ffffffffffffffffffffffffffffffffffffffff1663524f3889836000604051602001526040518263ffffffff167c01000000000000000000000000000000000000000000000000000000000281526004018080602001828103825283818151815260200191508051906020019080838360005b838110156123e55780820151818401526020810190506123ca565b50505050905090810190601f1680156124125780820380516001836020036101000a031916815260200191505b5092505050602060405180830381600087803b151561243057600080fd5b6102c65a03f1151561244157600080fd5b505050604051805190509050919050565b60008060008060009054906101000a900473ffffffffffffffffffffffffffffffffffffffff1673ffffffffffffffffffffffffffffffffffffffff1614806124c4575060006124c26000809054906101000a900473ffffffffffffffffffffffffffffffffffffffff16612994565b145b156124d5576124d3600061299f565b505b6000809054906101000a900473ffffffffffffffffffffffffffffffffffffffff1673ffffffffffffffffffffffffffffffffffffffff166338cc48316000604051602001526040518163ffffffff167c0100000000000000000000000000000000000000000000000000000000028152600401602060405180830381600087803b151561256257600080fd5b6102c65a03f1151561257357600080fd5b5050506040518051905073ffffffffffffffffffffffffffffffffffffffff16600160009054906101000a900473ffffffffffffffffffffffffffffffffffffffff1673ffffffffffffffffffffffffffffffffffffffff161415156126bc576000809054906101000a900473ffffffffffffffffffffffffffffffffffffffff1673ffffffffffffffffffffffffffffffffffffffff166338cc48316000604051602001526040518163ffffffff167c0100000000000000000000000000000000000000000000000000000000028152600401602060405180830381600087803b151561266057600080fd5b6102c65a03f1151561267157600080fd5b50505060405180519050600160006101000a81548173ffffffffffffffffffffffffffffffffffffffff021916908373ffffffffffffffffffffffffffffffffffffffff1602179055505b600160009054906101000a900473ffffffffffffffffffffffffffffffffffffffff1673ffffffffffffffffffffffffffffffffffffffff1663524f3889856000604051602001526040518263ffffffff167c01000000000000000000000000000000000000000000000000000000000281526004018080602001828103825283818151815260200191508051906020019080838360005b8381101561276f578082015181840152602081019050612754565b50505050905090810190601f16801561279c5780820380516001836020036101000a031916815260200191505b5092505050602060405180830381600087803b15156127ba57600080fd5b6102c65a03f115156127cb57600080fd5b50505060405180519050905062030d403a02670de0b6b3a7640000018111156127fa576000600102915061298d565b600160009054906101000a900473ffffffffffffffffffffffffffffffffffffffff1673ffffffffffffffffffffffffffffffffffffffff1663adf59f9982600087876000604051602001526040518563ffffffff167c0100000000000000000000000000000000000000000000000000000000028152600401808481526020018060200180602001838103835285818151815260200191508051906020019080838360005b838110156128bb5780820151818401526020810190506128a0565b50505050905090810190601f1680156128e85780820380516001836020036101000a031916815260200191505b50838103825284818151815260200191508051906020019080838360005b83811015612921578082015181840152602081019050612906565b50505050905090810190601f16801561294e5780820380516001836020036101000a031916815260200191505b50955050505050506020604051808303818588803b151561296e57600080fd5b6125ee5a03f1151561297f57600080fd5b505050506040518051905091505b5092915050565b6000813b9050919050565b60006129a96129f3565b9050919050565b6000806129e86064600a546129d0600c5487612e8290919063ffffffff16565b8115156129d957fe5b04612e8290919063ffffffff16565b905080915050919050565b600080612a13731d3b2638a7cc9f2cb3d298a3da7a90b67e5506ed612994565b1115612ab457731d3b2638a7cc9f2cb3d298a3da7a90b67e5506ed6000806101000a81548173ffffffffffffffffffffffffffffffffffffffff021916908373ffffffffffffffffffffffffffffffffffffffff160217905550612aab6040805190810160405280600b81526020017f6574685f6d61696e6e6574000000000000000000000000000000000000000000815250612ebd565b60019050612e7f565b6000612ad373c03a2615d5efaf5f49f60b7bb6583eaec212fdf1612994565b1115612b745773c03a2615d5efaf5f49f60b7bb6583eaec212fdf16000806101000a81548173ffffffffffffffffffffffffffffffffffffffff021916908373ffffffffffffffffffffffffffffffffffffffff160217905550612b6b6040805190810160405280600c81526020017f6574685f726f707374656e330000000000000000000000000000000000000000815250612ebd565b60019050612e7f565b6000612b9373b7a07bcf2ba2f2703b24c0691b5278999c59ac7e612994565b1115612c345773b7a07bcf2ba2f2703b24c0691b5278999c59ac7e6000806101000a81548173ffffffffffffffffffffffffffffffffffffffff021916908373ffffffffffffffffffffffffffffffffffffffff160217905550612c2b6040805190810160405280600981526020017f6574685f6b6f76616e0000000000000000000000000000000000000000000000815250612ebd565b60019050612e7f565b6000612c5373146500cfd35b22e4a392fe0adc06de1a1368ed48612994565b1115612cf45773146500cfd35b22e4a392fe0adc06de1a1368ed486000806101000a81548173ffffffffffffffffffffffffffffffffffffffff021916908373ffffffffffffffffffffffffffffffffffffffff160217905550612ceb6040805190810160405280600b81526020017f6574685f72696e6b656279000000000000000000000000000000000000000000815250612ebd565b60019050612e7f565b6000612d13736f485c8bf6fc43ea212e93bbf8ce046c7f1cb475612994565b1115612d7657736f485c8bf6fc43ea212e93bbf8ce046c7f1cb4756000806101000a81548173ffffffffffffffffffffffffffffffffffffffff021916908373ffffffffffffffffffffffffffffffffffffffff16021790555060019050612e7f565b6000612d957320e12a1f859b3feae5fb2a0a32c18f5a65555bbf612994565b1115612df8577320e12a1f859b3feae5fb2a0a32c18f5a65555bbf6000806101000a81548173ffffffffffffffffffffffffffffffffffffffff021916908373ffffffffffffffffffffffffffffffffffffffff16021790555060019050612e7f565b6000612e177351efaf4c8b3c9afbd5ab9f4bbc82784ab6ef8faa612994565b1115612e7a577351efaf4c8b3c9afbd5ab9f4bbc82784ab6ef8faa6000806101000a81548173ffffffffffffffffffffffffffffffffffffffff021916908373ffffffffffffffffffffffffffffffffffffffff16021790555060019050612e7f565b600090505b90565b6000806000841415612e975760009150612eb6565b8284029050828482811515612ea857fe5b04141515612eb257fe5b8091505b5092915050565b8060029080519060200190612ed3929190612ed7565b5050565b828054600181600116156101000203166002900490600052602060002090601f016020900481019282601f10612f1857805160ff1916838001178555612f46565b82800160010185558215612f46579182015b82811115612f45578251825591602001919060010190612f2a565b5b509050612f53919061304f565b5090565b602060405190810160405280600081525090565b815481835581811511612f9857600302816003028360005260206000209182019101612f979190613074565b5b505050565b828054600181600116156101000203166002900490600052602060002090601f016020900481019282601f10612fde57805160ff191683800117855561300c565b8280016001018555821561300c579182015b8281111561300b578251825591602001919060010190612ff0565b5b509050613019919061304f565b5090565b81548183558181151161304a5760020281600202836000526020600020918201910161304991906130d2565b5b505050565b61307191905b8082111561306d576000816000905550600101613055565b5090565b90565b6130cf91905b808211156130cb57600080820160006101000a81549073ffffffffffffffffffffffffffffffffffffffff021916905560018201600090556002820160006130c29190613120565b5060030161307a565b5090565b90565b61311d91905b8082111561311957600080820160006101000a81549073ffffffffffffffffffffffffffffffffffffffff02191690556001820160009055506002016130d8565b5090565b90565b50805460018160011615610100020316600290046000825580601f106131465750613165565b601f016020900490600052602060002090810190613164919061304f565b5b505600a165627a7a72305820132ef11f64c2cfa44bdd20c80619d7b89dc02dc7c84443b1f0190f5ef8a6a9000029",
  "source": "pragma solidity ^0.4.18;\n\nimport \"./OraclizeAPI.sol\";\n\nimport \"./SafeMath.sol\";\n\ncontract Game is usingOraclize {\n\n using SafeMath for uint;\n\n //MINIMUM_STAKE allowed is 0.01 ether\n uint public constant MINIMUM_STAKE = 10 ** 16;\n\n //MAXIMUM_STAKE allowed is 1 ether\n uint public constant MAXIMUM_STAKE = 10 ** 18;\n\n string public constant TEAM_A = 'realmadrid';\n\n string public constant TEAM_B = 'swansea';\n\n //Game playoff\n uint256 public startTime;\n\n //Game off\n uint256 public endTime;\n\n //Address that created the contract\n address public owner;\n\n //Address that bet charges are paid to\n address public referee;\n\n bool public closed = false;\n\n uint public totalPayable;\n\n uint public totalHolding;\n\n string public winner;\n\n uint precision = 10 ** 18;\n\n struct Punter {\n  address account;\n  uint stake;\n  string supporting;\n }\n\n Punter[] public bettings;\n\n struct Ration {\n  address account;\n  uint percentage;\n }\n\n Ration[] public rations;\n\n mapping (address => uint) public payouts;\n\n mapping (address => uint) public  payoutAddresses;\n\n mapping (address => uint) public  bettingAddresses;\n\n mapping (bytes32 => bool) public queryIds;\n\n modifier onlyOwner() {\n  require(msg.sender == owner);\n\n  _;\n }\n\n modifier ended() {\n  require(block.timestamp >= endTime || closed == true);\n\n  _;\n }\n\n modifier notStarted() {\n  require(started() == false);\n\n  _;\n }\n\n modifier validContribution() {\n  require(msg.value >= MINIMUM_STAKE && msg.value <= MAXIMUM_STAKE);\n\n  _;\n }\n\n modifier haveNoStake() {\n  require(bettingAddresses[msg.sender] == 0);\n\n  _;\n }\n\n modifier validTeam(string team) {\n  require(keccak256(TEAM_A) == keccak256(team) || keccak256(TEAM_B) == keccak256(team));\n\n  _;\n }\n\n modifier notClosed() {\n  require(closed  == false);\n\n  _;\n }\n\n event Bet(address account, uint amount);\n\n event BetClosed(uint timestamp, string result);\n\n event FetchedResult(string winner);\n\n event newOraclizeQuery(string description);\n\n event Payment(uint winning);\n\n /*\n * @param start startTime\n * @param end endTime\n */\n function Game(uint start, uint end) public payable {\n  startTime = start;\n  endTime = end;\n  owner = msg.sender;\n\n  OAR = OraclizeAddrResolverI(0x6f485C8BF6fc43eA212E93BBF8ce046C7f1cb475);\n }\n\n /*\n * @returns bool\n */\n function started() public view returns (bool) {\n  return block.timestamp >= startTime;\n }\n\n /*\n * @param team realmadrid, swansea\n */\n function placeBet(string team) notStarted validContribution haveNoStake validTeam(team) public payable returns (uint) {\n  bettings.push(Punter({\n   account: msg.sender,\n   stake: msg.value,\n   supporting: team\n   }));\n\n  bettingAddresses[msg.sender] = bettings.length - 1;\n\n  Bet(msg.sender, msg.value);\n }\n\n function endGame() onlyOwner public {\n  closed = true;\n }\n\n /*\n * @param address\n * @return team\n * @return stake\n */\n function getAccountInfo(address account) public view returns (address, uint, string) {\n  uint location = bettingAddresses[account];\n\n  Punter storage info = bettings[location];\n\n  return (info.account,info.stake,info.supporting);\n }\n\n function getWinner() ended public payable {\n  if (oraclize_getPrice(\"URL\") > this.balance) {\n   newOraclizeQuery(\"Oraclize query was NOT sent, please add some ETH to cover for the query fee\");\n  } else {\n   newOraclizeQuery(\"Oraclize query was sent, standing by for the answer..\");\n   bytes32 queryId = oraclize_query(\"URL\", \"json(https://www.api.ogunmoye.com).winner\");\n\n   queryIds[queryId] = true;\n  }\n }\n\n function __callback(bytes32 myid, string result) public {\n  require(msg.sender == oraclize_cbAddress());\n  require(queryIds[myid] == true);\n\n  winner = result;\n  closed = true;\n\n  delete queryIds[myid];\n\n  FetchedResult(result);\n  BetClosed(block.timestamp, result);\n }\n\n function distributeStake() onlyOwner public payable returns (address){\n  calculateTotalPayable();\n  calculateIndividualRation();\n\n  for(uint i = 0; i < rations.length; ++i) {\n   Ration storage ration = rations[i];\n   uint winning = ration.percentage.div(100) * totalPayable;\n\n   winning = winning.div(10 ** 18);\n\n   payouts[ration.account] = winning;\n\n//   address(ration.account).transfer(winning);\n\n   Payment(winning);\n  }\n }\n\n function calculateTotalPayable() internal {\n  require(bettings.length > 0);\n\n  for(uint i = 0; i < bettings.length; ++i) {\n\n   Punter storage profile = bettings[i];\n\n   //String cannot be compared directly\n   //Hash to do comparision\n   if(keccak256(profile.supporting) == keccak256(winner)) {\n    totalHolding += profile.stake;\n\n    rations.push(Ration({\n     account: profile.account,\n     percentage: profile.stake\n     }));\n\n    payoutAddresses[profile.account] = rations.length - 1;\n\n   }else{\n    totalPayable += profile.stake;\n   }\n  }\n }\n\n //Calculate each individual payout in percentage\n //ratio of the total payout\n function calculateIndividualRation() internal {\n  for(uint i = 0; i < rations.length; ++i) {\n\n   Ration storage ration = rations[i];\n\n   ration.percentage = getPercentage(ration.percentage);\n  }\n }\n\n //Calculate percentage and add precision to eliminate decimals\n //which cannot be handled\n function getPercentage(uint stake) internal view returns (uint) {\n  uint percentage = (stake.mul(precision) / totalHolding).mul(100);\n\n  return percentage;\n }\n\n function getAccountPercentage(address account) public view returns (uint percentage) {\n  uint location = payoutAddresses[account];\n\n  return rations[location].percentage;\n }\n\n function getBalance(address account) public view returns (uint balance) {\n  return account.balance;\n }\n\n function() payable {\n\n }\n}",
  "sourcePath": "/var/www/html/smart-contract/Game/contracts/Game.sol",
  "compiler": {
    "name": "solc",
    "version": "0.4.19+commit.c4cbbb05.Emscripten.clang"
  },
  "schemaVersion": "2.0.0",
  "updatedAt": "2018-04-07T16:56:23.048Z"
}